:020000040800F2
:100000004862002059020008AF2C0008152400089F
:10001000AD2C0008130A0008353400080000000069
:100020000000000000000000000000009D0100082A
:10003000E90A000800000000F10100082B2D00086B
:1000400073020008730200087302000873020008BC
:1000500073020008730200087302000873020008AC
:10006000730200087302000873020008730200089C
:10007000730200087302000873020008730200088C
:10008000730200087302000873020008730200087C
:10009000730200087302000873020008730200086C
:1000A000730200087302000873020008730200085C
:1000B000730200087302000873020008730200084C
:1000C000730200087302000873020008730200083C
:1000D000730200081D340008730200087302000850
:1000E000730200087302000873020008730200081C
:1000F000730200087302000873020008730200080C
:1001000073020008730200087302000873020008FB
:1001100073020008730200087302000873020008EB
:1001200073020008730200082D0A00087302000819
:10013000730200087302000873020008210A000815
:1001400073020008150A0008730200087302000811
:100150007302000873020008390A000873020008DD
:10016000730200087302000873020008730200089B
:100170007302000873020008730200080000000008
:100180007302000873020008DFF80CD000F0DEFBF9
:100190000048004705590008486200202B4B1968A9
:1001A0000868B0E8F04F80F30988BFF36F8F4FF015
:1001B000000080F3118870470000000006480068C6
:1001C000006880F3088862B661B6BFF34F8FBFF353
:1001D0006F8F00DF00BF00BF08ED00E0DFF80C000C
:1001E000016841F470010160704700BF88ED00E0D4
:1001F000EFF30980BFF36F8F144B1A681EF0100FD6
:1002000008BF20ED108A20E9F04F106008B44FF0CD
:10021000500080F31188BFF34F8FBFF36F8F07F04B
:10022000D9F94FF0000080F3118808BC19680868FC
:10023000B0E8F04F1EF0100F08BFB0EC108A80F34A
:100240000988BFF36F8F704700BF00BF9C0000207C
:10025000EFF30580704700000648804706480047D6
:10026000FEE7FEE7FEE7FEE7FEE7FEE7FEE7FEE766
:10027000FEE7FEE7D52D0008890100082DE9F05FB3
:100280000546002092469B46884606468146402405
:100290001BE0284641464746224600F088FA53466E
:1002A0005A46C01A914110D311461846224600F012
:1002B0006FFA2D1A67EB01084F46224601200021F4
:1002C00000F066FA17EB00094E41201EA4F101046C
:1002D000DFDC484631462A464346BDE8F09F2DE91B
:1002E000F0410024061B254671F1000605DA0124C1
:1002F0000027D0EB070067EB0101161E73F1000623
:1003000005DA0027D2EB0702012567EB0303FFF7AD
:10031000B5FF86460E4617469C46AC4204D00025E3
:10032000D0EB050E65EB010624B10020D2EB0007EF
:1003300060EB030C704631463A466346BDE8F081F7
:1003400040EA01039B0703D009E008C9121F08C057
:10035000042AFAD203E011F8013B00F8013B521ED7
:10036000F9D27047D2B201E000F8012B491EFBD24E
:1003700070470022F6E710B513460A4604461946B0
:10038000FFF7F0FF204610BD30B5044600200346BD
:1003900000E05B1C934203D2E05CCD5C401BF8D0D4
:1003A00030BD2DE9FE4F804681EA0300C00F0C46A8
:1003B000009021F0004123F00045B8EB0200A94174
:1003C00005D24046214690461C460B46024623F085
:1003D0000040104347D0270DC7F30A00C3F30A516A
:1003E0000290401A019040286BDAC3F3130040F4E6
:1003F000801B0098924620B10023D2EB030A63EBE6
:100400000B0B01985946C0F14002504600F0C0F96C
:1004100006460D4650465946019A00F0D8F910EBB1
:1004200008006141002487EA115284EAE7731A4305
:1004300040D0009A62B3019A012A4FEA075215DCB4
:10044000001B61EB02014FF0004202EA0752CDE9C6
:100450000042001C41F5801132462B4600F00FFA95
:1004600003B0BDE8F08F40462146F9E7001B61EB81
:100470000201001C41F5801300185B412018A2F511
:10048000001747EB030140EAD570B6196D4111E042
:100490006D084FEA360645EAC0754FEA0752001B61
:1004A00061EB0201001C41F5801149084FEA300060
:1004B0000019514132462B4603B0BDE8F04F00F021
:1004C000CFB90098012240000023D0EB020263EB79
:1004D000E073009821464FEAE074B8EB000061EB4E
:1004E0000401E9E783F000435BE781F0004158E74E
:1004F0002DE9FE4F81EA030404F0004421F000419D
:1005000000944FF0000B23F0004350EA01045ED04A
:1005100052EA03045BD0C3F30A54C1F30A552C44D6
:10052000A4F2F3340194A0FB0254C1F3130141F48B
:100530008011C3F3130343F4801301FB024400FB57
:10054000034E840A970A44EA815447EA8357A4FB7E
:10055000076802958D0A05FB07854FEA932C04FB7B
:100560000C542705029D4FEA065847EA1637B5EBAB
:1005700008056EEB070C870E920E47EA811742EAD8
:100580008312A7FB0201B6EB0B0164EB00042B0DF9
:1005900043EA0C335E1844EB1C50DA465146E7FB45
:1005A0000201C5F313044FEA0B3343EA14534FEA35
:1005B0000432019C43EA0603A4F10C040294009C5B
:1005C000CDE900B400F05BF903B0BDE8F08F002086
:1005D0000146F9E72DE9F04D81EA030404F0004BF0
:1005E00021F0004514464FF0000A23F0004150EA84
:1005F000050220D054EA01021DD0C5F30A57024675
:10060000C5F31303C1F31300C1F30A5640F4801578
:1006100043F48013A7EB0608101BD64608F2FD38FA
:1006200073EB050002D308F1010801E092185B4169
:10063000B8F1000F03DA00200146BDE8F08D00207C
:100640004FF48011064684460EE0171B73EB050736
:1006500005D3121B63EB050306434CEA010C490862
:100660004FEA300092185B4150EA0107EDD152EA9F
:10067000030012D082EA040083EA0501084305D092
:10068000101BAB4106D20122002306E000224FF0EE
:10069000004302E06FF0010253101AEB06004CEB2E
:1006A000085110EB0A0041EB0B01BDE8F04D00F0E2
:1006B000D7B80EB5C10F80EAE0700844CA07002120
:1006C00040F233438DE80E000A460B4600F0D7F89F
:1006D00003B000BD00F0004230F000400AD0C10D70
:1006E00001F56071C0F3160042EA0151C2084007EB
:1006F00011437047002001467047000030B5041ECA
:1007000071F1000404DB4FF00044404264EB01014E
:10071000141E73F1000405DB1C464FF000435242E7
:1007200063EB0403994208BF904230BD01F00043DF
:1007300030B421F0004150EA010206D00A0DA2F5C2
:100740006072C1F31301002A02DC30BC0020704744
:10075000440F44EAC104C100E01830BC00EBC250B1
:1007600000F047B830B50B46014600202022012496
:1007700009E021FA02F59D4205D303FA02F5491B6F
:1007800004FA02F52844151EA2F10102F1DC30BD85
:10079000202A04DB203A00FA02F100207047914041
:1007A000C2F1200320FA03F3194390407047202A36
:1007B00004DB203A21FA02F00021704721FA02F30B
:1007C000D040C2F120029140084319467047202AC8
:1007D00006DBCB17203A41FA02F043EAE07306E069
:1007E00041FA02F3D040C2F1200291400843194679
:1007F00070470029A8BF7047401C490008BF20F07F
:100800000100704710B4B0FA80FC00FA0CF050EA16
:10081000010404BF10BC704749B1CCF1200421FA97
:1008200004F411FA0CF118BF012121430843A3EB92
:100830000C01CB1D4FEA00614FEA102042BF00209F
:1008400010BC704700EBC35010440029A4BF10BC7B
:100850007047401C490008BF20F0010010BC7047E1
:1008600010B5141E73F1000408DA401C41F10001B8
:1008700092185B411A4301D120F0010010BD2DE90F
:10088000F04D92469B4611B1B1FA81F202E0B0FA06
:1008900080F220329046FFF77BFF04460F4640EA85
:1008A0000A0041EA0B0153465A46084313D0114649
:1008B00053EA010019D0C8F140025046FFF777FF14
:1008C00005460E46504659464246FFF761FF08432B
:1008D00005D0012004E020463946BDE8F08D002017
:1008E000054346EAE0762C4337430A986305E40A59
:1008F000A0EB08000022FD0A44EA47540A3002D562
:1009000000200146E9E7010510196941DDE90845C4
:1009100000196941BDE8F04DA2E7C1F30A52C1F3E5
:10092000130140F2FF3341F480119A4202DA0020B1
:100930000146704740F233439A42A2F2334202DC4E
:100940005242FFF734BFFFF723BF0000064C074DAC
:1009500006E0E06840F0010394E80700984710348F
:10096000AC42F6D3FFF714FC6C8700088C870008B4
:100970002DE9F04D00231A461B1A8A4103DB0020A3
:100980000146BDE8F08DC1F30A52C1F3130141F4F1
:1009900080154FF0000BD10702D100186D41521E97
:1009A0000027044640F2FF11384601EB620A3E463A
:1009B0008046024600204FF48011FFF7F8FEC2196E
:1009C0007141BB1846EB0100B4EB030C75EB000C56
:1009D00004D3E41A65EB000517460E46241908F106
:1009E00001006D4180463428E3DDF91946EB06002D
:1009F000091BA84103D24FF0FF32134601E0002249
:100A000013461BEB070046EB0A51BDE8F04DFFF71C
:100A100027BFFEE7014800F06EBA0000C0020020C8
:100A2000014800F068BA0000C0020020014800F050
:100A3000C1BC0000B4030020014800F0BBBC0000B2
:100A40001404002001681823CAB2103AB2FBF3F272
:100A5000054B6FF30901032A9B5CC36500D9091D8F
:100A60008165084670470000DC85000810B5014626
:100A700000208B698A6A4FF0C07453B1B3F5005FF0
:100A800015D072B1012A0CD0022A0AD0032A09D14A
:100A900004E01AB1012A06D0022A03D1C96AC901A9
:100AA00000D5012010BDC96AA142FAD010BD002AAC
:100AB000F7D0012AF2D0022AF3D0032AF3D010BDD6
:100AC00030B50468256825F48025256004686360D6
:100AD0008368402B036803D099600068C26030BD12
:100AE0009A600068C16030BD7047000070B5B3F512
:100AF000804F05D06FF0704140F82210002070BD8B
:100B000050F82240084B8E891C40D1E9003543EA59
:100B100005138D6889692D0245EA06452B430B4371
:100B2000234340F82230E9E70000F0CFF0B50C682D
:100B300050F82430114A1340D1E90125D1E9036767
:100B40002A433E4332434E6932438E693243CE6973
:100B500032430E6A32434E6A32438E6A3243CE6A61
:100B60003243CE6B096B32430A431A43082D01D13D
:100B700042F0400240F824200020F0BD8000F0FF49
:100B800030B500EB820250688D8900F04043D1E916
:100B9000000440EA04108C68240244EA054420431F
:100BA0000C8A074D05EB045420430C7D6D0105EBC9
:100BB000046489692043084318435060002030BD15
:100BC0000000F0FF90F82020012A09D090F82020A2
:100BD000022A05D0416A41F4802141620120704718
:100BE000006842690A43426100207047F0B590F8FE
:100BF0002040012C07D090F82040022C03D0416AFD
:100C000041F4802153E00468A5686D0105D4A5680E
:100C10002D0102D4A568ED0046D5A4680125C4F3D2
:100C20000164A5401D608D684FF4C0739DB1CE680E
:100C300035434E6845EAC605066803EB0417F551CF
:100C40004FF4C275076805EB04150E697E51097DE6
:100C5000012905D009E00E88CD6845EA4655EBE745
:100C600001684E5946F480764E511179D2F80550FC
:100C70004FF4C67641EA0521056806EB0416A95132
:100C80001178D2F801204FF4C47541EA02210268BC
:100C900005EB04155151006803EB0411425842F072
:100CA000010242500020F0BD416A41F4001141624E
:100CB0000120F0BD10B590F82020012A09D090F84D
:100CC0002020022A05D0416A41F48021416201209E
:100CD00010BD3A48D0F8002242F00102C0F80022CC
:100CE000D0F8002222F47C52C0F80022D0F8002272
:100CF0004B6A42EA0322C0F800220B7D01229A408F
:100D0000D0F81C329343C0F81C32CB69B3B9D0F889
:100D10000C329343C0F80C328C894B6864F31F4348
:100D20004C6900EBC404C4F840320C890B6864F3CE
:100D30001F434C6900EBC404C4F84432CB69012B57
:100D400016D1D0F80C321343C0F80C320C884B6823
:100D500064F31F434C6900EBC404C4F840320C89AF
:100D6000CB6864F31F434C6900EBC404C4F84432FD
:100D70008B69002BD0F804320ED01343C0F8043234
:100D80000B69002BD0F8143208D01343C0F814328A
:100D9000096A012904D008E09343EFE79343F5E79C
:100DA000D0F81C121143C0F81C12D0F8001221F028
:100DB0000101C0F80012002010BD000000640040D6
:100DC0000068416941F40F414161704730B590F8C6
:100DD0002040012C07D090F82040022C03D0416A1B
:100DE00041F4802109E011B1012909D00CE0046827
:100DF000E46807E0416A41F400114162012030BD1E
:100E000004682469A407F5D04FF4D874056804EB8E
:100E100001142D5915F00405956005682D5942D02F
:100E2000ED08556005682C59C4F34004D4604FF4B4
:100E3000DA74056804EB01142D5905F00F051561EE
:100E400005682D59C5F30725956105682C59240CB3
:100E500054614FF4DC72046802EB0112A4581C7058
:100E60000468A458240A5C700468A458240C9C707C
:100E70000468A258120EDA704FF4DE72046802EBB6
:100E80000112A4581C710468A458240A5C710468F7
:100E9000A458240C9C710468A258120EDA7129B16E
:100EA000012909D00DE06D0D1560BBE70068C16830
:100EB00041F02001C16004E00068016941F02001B7
:100EC0000161002030BD0146002091F82020012A58
:100ED00003D091F82020022A0CD109688A685201B7
:100EE00000D501208A68120100D5401C8968C9001C
:100EF00000D5401C70472DE9F05F054600680024CE
:100F00004669D0F804908768D0F80CB0D0F810A0EB
:100F1000D0F81880F10748D0F90714D0012181607A
:100F2000B80703D5284600F02CFA0CE0780702D564
:100F30004FF4006407E0380702D54FF4805402E014
:100F4000284600F01DFAF80516D529684FF4807080
:100F50008860B80503D5284600F015FA0CE078053E
:100F600002D544F4005407E0380502D544F4804427
:100F700002E0284600F006FAF80316D529684FF477
:100F800080308860B80303D5284600F0FEF90CE0F5
:100F9000780302D544F4004407E0380302D544F452
:100FA000803402E0284600F0EFF9300707D55FEA09
:100FB000CB6004D52968102044F40074C860700721
:100FC0004FF0080707D55FEA0B7004D52868C760A3
:100FD000284600F059F9B00706D52868C068800790
:100FE00002D0284600F051F9700607D55FEACA60C2
:100FF00004D52968102044F480640861B00607D540
:101000005FEA0A7004D528680761284600F03EF9B7
:10101000F00606D528680069800702D0284600F04F
:1010200037F9B00308D55FEAC96005D529681020F3
:101030004860284600F076F9F00307D55FEA0970AA
:1010400004D528684760284600F0A0F9300446D54A
:101050005FEA497040D5F00504D55FEAC87001D059
:1010600044F00104B00504D55FEA887001D544F06E
:101070000204700504D55FEA487001D544F0040409
:10108000300529D518F0700F26D008F070004028E0
:1010900015D006DC102809D020280AD0302816D117
:1010A0000AE050280ED0602811D10EE044F0080468
:1010B0000DE044F010040AE044F0200407E044F09E
:1010C000400404E044F0800401E044F480742868A3
:1010D000816921F070018161296804204860002C39
:1010E00005D0686A204368622846FFF769FEBDE8BC
:1010F000F09F70B5040003D094F8200010B104E014
:10110000012070BD204600F081F82068016821F0C0
:101110000201016000F0F0FB0546052604E000F046
:10112000EBFB401B0A2811D8206840688007F6D4E2
:101130002068016841F00101016000F0DDFB054617
:101140000BE000F0D9FB401B0A2806D9606A40F486
:101150000030606284F82060D2E720684068C007F1
:10116000EFD0207E0128206801683DD021F0800169
:101170000160607E01282068016838D021F04001BC
:101180000160A07E01282068016833D021F0200191
:101190000160E07E0128206801682ED041F0100136
:1011A0000160207F01282068016829D021F0080112
:1011B0000160607F01282068016824D021F00401CB
:1011C0000160D4E902010843D4E904121143084341
:1011D0006168491E08432168C861002060620120DF
:1011E00084F82000002070BD41F08001C0E741F08C
:1011F0004001C5E741F02001CAE721F01001CFE727
:1012000041F00801D4E741F00401D9E700B50068D6
:101210001A4987B088422FD119480021026842F04C
:1012200080620260026802F080620592026842F009
:1012300000720260006800F0007005904FF44050AA
:1012400000900220CDE901010320039009200490C1
:1012500069460C4800F06EFA002205213F2000F09C
:10126000E1FB3F2000F0D2FB00220521412000F0ED
:10127000D9FB412000F0CAFB07B000BD0068004068
:101280004038024000040240704770477047000039
:1012900000B587B01B4B6A460121FFF797FD18B1D7
:1012A0008C2119A002F0C7F80098A0F5007101394F
:1012B0000AD0A0F50071023906D0A0F500710339FB
:1012C00002D0B0F5017F14D10E49401E491EC0B2B4
:1012D0000870C0EB0011114800EB810081694A1CC5
:1012E00032290849826102D804F012F801E003F0C3
:1012F0006DFF0B480068416941F00201416107B090
:1013000000BD000036000020305F6273705C6361D6
:101310006E5C6273705F63616E2E6300F00000208C
:10132000C00200207047000070B5044690F820000D
:10133000012804D0606A40F40020606218E00220B6
:1013400084F820002068016821F00101016000F0AC
:10135000D3FA05460EE000BF00F0CEFA401B0A2883
:1013600008D9606A40F400306062052084F82000EB
:10137000012070BD20684068C007EDD1606270BD7B
:10138000704770477047704770477047704790F8D4
:101390003510022903D080214165012070470521C5
:1013A00080F835100068016821F00101016000201B
:1013B000704700002DE9F84304464FF00009CDF8CE
:1013C000009063484FF41651A56D0068B0FBF1F72B
:1013D0002E6894F85C10082000FA01F131420FD019
:1013E00021680A6852070BD50A6822F004020A60D5
:1013F00094F85C108840A860606D40F00100606562
:1014000094F85C104FF0010808FA01F0304208D05F
:1014100021684969090604D5A860606D40F00200A2
:10142000606594F85C1004208840304208D0216840
:101430000968890704D5A860606D40F00400606504
:1014400094F85C1010208840304218D02168096858
:10145000090714D5A86020680168490304D500680D
:10146000000308D5A16C07E00168C90503D4016831
:1014700021F008010160216C09B12046884794F8E9
:101480005C1020208840304231D021680968C906AC
:101490002DD5A86094F8350005282068016806D08D
:1014A000490347D5006800031DD4616C1CE021F09E
:1014B000160101602068416921F080014161206CC2
:1014C00008B9A06C20B12068016821F00801016012
:1014D00094F85C103F208840A86084F8349084F829
:1014E0003580216D1FE0E16B09B120468847606DB2
:1014F00000282BD0606DC00714D0052084F835007B
:101500002068016821F0010101600098401C0090F2
:10151000B84203D820680068C007F6D184F8349038
:1015200084F83580E16C002910D001B02046BDE878
:10153000F04308470168C905D5D4016821F01001BE
:10154000016084F8349084F83580CCE7BDE8F883F6
:10155000740000202DE9F041044600F0CDF9064664
:101560005CB1002584F83450022084F835002068EE
:10157000016821F0010101600DE00120BDE8F0816A
:1015800000F0BAF9801B052805D9202060650320EA
:1015900084F83500F2E720680068C007F0D12268BF
:1015A000116820480140D4E901031843D4E9033607
:1015B0003343184363691843A3691843E369184325
:1015C000236A18430843616A042903D1D4E90B1341
:1015D00019430843106020684069666A20F00701DB
:1015E00030460E43012704280CD1A06A0643E06A66
:1015F00040B12046FFF73AFA20B14020606584F8F8
:101600003570BAE7206846612046FFF71BFA94F868
:101610005C203F2191408160656584F83570002031
:10162000ACE700003F8010F070B5044690F834003D
:10163000002501280CD0012084F8340094F835608E
:101640000020012E06D084F834000225284670BD03
:10165000022070BD022684F8356060652046FFF7E1
:101660002FFA2068016841F001010160EEE70000F7
:1016700070B5044600F040F90546601C02D00448ED
:101680000078044400F038F9401BA042FAD370BD42
:10169000680000202DE9F041204886B0016800294B
:1016A00039D1012101601E480024016841F0010187
:1016B000016000684FF4805800F001000C27CDF85D
:1016C0000080CDE90470032602250396CDE901547C
:1016D0006946144800F02EF84FF68070CDE90005F9
:1016E00002AA694682E8D0000F4800F023F84CF2C5
:1016F0003370CDE9000502AA694682E8D0000B48A4
:1017000000F018F802AA694682E8D000CDE9008509
:10171000074800F00FF806B0BDE8F0816000002037
:10172000383802400014024000100240000C024011
:10173000001802402DE9F84FDFF87CB100224FF08D
:1017400001084FF0030A4FF00F090BF1040E00BF20
:101750000B6808FA02F42340A3426ED14D68022DB3
:1017600001D0122D0ED1D50800EB850CDCF82050ED
:101770005607F70E09FA07F6B5430E69BE402E4329
:10178000CCF82060066855000F790AFA05FC07F0CE
:10179000030726EA0C06AF40374307604E68012E68
:1017A00005D0022E03D0112E01D0122E0ED1866844
:1017B000CF6826EA0C06AF40374387604668A643E9
:1017C0000C79C4F30014944034434460C6688C68B8
:1017D00026EA0C06AC403443C4604C68E40065D58E
:1017E000364C256845F480452560246822F00305C1
:1017F00004F480440094324C2E19D6F8084895071A
:101800002F0F09FA07F5AC432E4DA84201D1002550
:1018100024E02D4DA84201D101251FE02B4DA84207
:1018200001D102251AE02A4DA84201D1032515E075
:10183000284DA84202D1042510E037E0264DA842E9
:1018400001D105250AE0254DA84201D1062505E074
:10185000234DA84201D1072500E00825BD402543BE
:10186000C6F80858DBF800405D464E689C43F60316
:1018700000D51C432C60DEF8004075464E689C4342
:10188000B60300D51C432C600B4D08352C684E6800
:101890009C43F60200D51C432C60074D0C352C6888
:1018A0004E689C43B60200D51C432C60521C102A83
:1018B000FFF44EAFBDE8F88F003C014044380240D1
:1018C00000300140000002400004024000080240D5
:1018D000000C0240001002400014024000180240B8
:1018E000001C02400069084000D0012070470AB186
:1018F000816170470904FBE7014880687047000078
:1019000068000020024881680278114481607047B5
:10191000680000200B4810B5016841F400710160B7
:10192000016841F480610160016841F480710160E7
:10193000032000F097F80F2000F006F800F024F8DC
:10194000002010BD003C024070B50D4D04464FF420
:101950007A712878B1FBF0F00A490968B1FBF0F020
:1019600000F047FB48B9102C07D200222146501E38
:1019700000F058F800206C6070BD012070BD0000C0
:1019800068000020740000201F4808B5016841F479
:1019900080410160006800F4804000901A48001FF8
:1019A000016841F080510160006800F080500090B3
:1019B000032000F057F8002211466FF00B0000F0F2
:1019C00031F8002211466FF00A0000F02BF80022D7
:1019D00011466FF0090000F025F800221146501F53
:1019E00000F020F800221146101F00F01BF8002222
:1019F0000F21901E00F016F800220F21BDE80840CC
:101A0000501E00F00FB800004438024000F01F02E2
:101A1000012191404009800000F1E020C0F8001150
:101A200070470000F0B40E4B1B680C46C3F3022352
:101A3000C3F10705042D00D90425191D072901D27A
:101A4000002300E0DB1E012606FA05F1491E2140B5
:101A500099409E40761E16403143F0BC01F028B9F3
:101A60000CED00E0064900F0070208684FF6FF039E
:101A7000184040EA0220034A104308607047000003
:101A80000CED00E00000FA052DE9F0470E460500D8
:101A900065D0DFF81481D8F80000F7B200F00F002D
:101AA000B04207D288F80070D8F8000000F00F00AC
:101AB000B04254D128683D4C810712D5400703D568
:101AC000206840F4E05020602878000703D52068A3
:101AD00040F4604020602068A96820F0F0000843CE
:101AE00020602878C0072DD030496868083901285F
:101AF00012D0022813D0032811D0096889070029C1
:101B00002DDA216821F0030101432160FFF7F4FE83
:101B1000814641F2883A0EE009688903EFE70968D7
:101B20008901ECE7FFF7E8FEA0EB0901514502D976
:101B30000320BDE8F0872068696800F00C00B0EB76
:101B4000810FEFD1D8F80010404601F00F01B142EB
:101B500007D90770006800F00F00B04201D00120E3
:101B6000E7E72878400705D52068E96820F4E050C9
:101B7000084320602878000706D52068296920F4EA
:101B8000604040EAC100206000F03CF82168084A4B
:101B9000C1F30311515CC840064908600F20FFF7EC
:101BA000D3FE0020C5E70000003C02400838024098
:101BB000E4850008740000200148006870470000B8
:101BC000740000200448054900680968044AC1F30C
:101BD0008221515CC84070477400002008380240E0
:101BE000F48500080448054900680968044AC1F3FF
:101BF0004231515CC84070477400002008380240F0
:101C0000F4850008154810B5006810F00C0214485F
:101C100013D04110042A0FD0082A0ED10F4C241FD4
:101C20002268236802F03F025B0207D52068C0F3F8
:101C30008810A0FB010106E0084610BD2168C1F331
:101C40008811A1FB00010023FEF718FB2168C1F3F6
:101C50000141491C4900B0FBF1F010BD08380240B9
:101C60000024F4002DE9F84F050076D02878DFF83D
:101C7000F8B2BE4CC00749D0DBF800105846C1F39B
:101C80008101012908D00068C0F3810002280AD12F
:101C9000201D0068400206D52068800336D568689C
:101CA0000028E2D032E06868B0F5803F10D0B0F58F
:101CB000A02F206810D020F480302060206820F40D
:101CC000802020606868A0B1FFF716FE06460CE091
:101CD000206840F48030F4E740F480202060F7E78B
:101CE000FFF70AFE801B642873D820688003F7D5AD
:101CF0000CE0FFF701FE064605E000BFFFF7FCFD24
:101D0000801B6428F0D820688003F7D42878DFF897
:101D1000608280074FF000093ED5DBF8001058467E
:101D200011F00C0F09D00068C0F3810002280BD11C
:101D30008D48001F0068400206D42068800715D532
:101D4000E868012809D111E0E868B8B10120C8F8B5
:101D50000000FFF7D1FD064605E002E1FFF7CCFDEC
:101D6000801B0228C0D820688007F7D52068296921
:101D700020F0F80040EAC10020600DE0C8F80090B3
:101D8000FFF7BAFD064604E0FFF7B6FD801B022808
:101D90001FD820688007F7D42878000722D5724E14
:101DA000744869696C3671B101210160FFF7A4FDC7
:101DB000074604E0FFF7A0FDC01B022809D83068E1
:101DC0008007F7D50EE0C0F80090FFF795FD0746B5
:101DD00005E083E0FFF790FDC01B02287ED8306845
:101DE0008007F7D42878400768D5DFF87CA1002762
:101DF0000AF1380ADAF80000C0000BD4DAF8001053
:101E000041F08051CAF80010DAF80000012700F014
:101E100080500090584E3068C00510D4306840F4AF
:101E200080703060FFF768FD009005E0FFF764FD0B
:101E30000099401A022851D83068C005F6D54A4E9C
:101E4000A868683601280FD00528306810D020F027
:101E500001003060306820F004003060A868B8B13C
:101E6000FFF74AFD00900FE0306840F00100F4E712
:101E700040F004003060F7E7FFF73EFD0099411A9B
:101E800041F28830814264D830688007F4D50EE092
:101E9000FFF732FD009007E0FFF72EFD0099411A91
:101EA00041F28830814254D830688007F4D42FB191
:101EB000DAF8001021F08051CAF80010A869C0B308
:101EC000DBF80010C1F3810102294AD002284846FC
:101ED00007D0C8F86000FFF70FFD00E039E00546C5
:101EE0003AE04746C8F86000FFF706FD064604E002
:101EF000FFF702FD801B02282BD820688001F7D451
:101F0000D5E907010843A96A1C4A490802EB0141C7
:101F10006A6A41EA8211084395F82C1040EA01618F
:101F20001148001F016001203866FFF7E5FC0546F7
:101F300005E014E0FFF7E0FC401B022809D8206808
:101F40008001F7D50BE000BFFFF7D6FC401B02284D
:101F500002D90320BDE8F88F20688001F4D4002066
:101F6000F8E70120F6E70000083802400038024098
:101F700000004742800E4742007000400000FFFF13
:101F800070B515460E46040003D094F8490010B110
:101F900007E0012070BD002084F84800204600F0D2
:101FA0001AF804F108012068FEF7C0FD3146A26866
:101FB0002068FEF7E5FDD4E901022946236BFEF710
:101FC00095FDA168206850F8212042F0010240F8F8
:101FD0002120002070BDFFF75DBB4FF0E0210428F9
:101FE000086903D020F004000861704740F0040045
:101FF000FAE710B5401EB0F1807F01D3012010BD7B
:102000004FF0E02460610F21601700F051FE0020C6
:10201000A06107202061002010BD10B5040003D08E
:1020200094F8390010B107E0012010BD002084F8B9
:102030003800204600F00CF8022084F83900211DF9
:10204000206800F0F1FE012084F83900002010BD66
:1020500008B500680649884208D10648016841F081
:1020600080010160006800F08000009008BD000061
:10207000001C00404038024000B50068094985B0A6
:1020800088420CD18015009002200190002002901F
:1020900003900920049069460348FFF74BFB05B005
:1020A00000BD0000001C00400014024070B5044652
:1020B00090F838000D4601280DD0012684F83860CC
:1020C000022084F8390042B1042A18D0082A2AD004
:1020D0000C2A4DD139E0022070BD206800F004FFC9
:1020E0002068816941F0080181612068816921F0DF
:1020F00004018161206881692A69114311E0206827
:1021000000F01EFF2068816941F400618161206850
:10211000816921F480618161206881692A6941EACD
:102120000221816124E0206800F03CFF2068C16941
:1021300041F00801C1612068C16921F00401C16159
:102140002068C1692A69114311E0206800F05AFF34
:102150002068C16941F40061C1612068C16921F44E
:102160008061C1612068C1692A6941EA0221C161B7
:1021700084F83960002084F8380070BD10B5040080
:1021800003D094F8390010B107E0012010BD002001
:1021900084F83800204600F00CF8022084F839005A
:1021A000211D206800F040FE012084F83900002045
:1021B00010BD70477047000070B502680446106893
:1021C000D168536910F00F0F50D003F0010501F4EE
:1021D000907635435DD0C20705D0CA0503D5E26BC2
:1021E00042F00102E263420705D5DA0703D0E26B51
:1021F00042F00202E263820705D5DA0703D0E26B00
:1022000042F00402E263020705D5DA0703D0E26B6D
:1022100042F00802E263E26B002A33D0800604D564
:10222000880602D5204600F02BFF20684069E16B4C
:10223000C0F38010090700D428B3204600F012FF35
:102240002068416949061AD5416921F04001416180
:10225000606BA0B11B490165606BFFF798F800281F
:1022600010D0606B016DBDE870400847830610D543
:102270008B060ED52046BDE8704000F001BF204619
:10228000FFF798FF70BD2046FFF794FF0020E06342
:1022900070BD030606D50B0604D52046BDE8704088
:1022A00001F08AB84006F3D54806F1D5D16820463A
:1022B00021F04001D160202184F8391000F0A9F804
:1022C00070BD00005530000870B5040004D094F8CB
:1022D0003900002510B106E0012070BD84F83850A7
:1022E000204600F023F8242084F839002068C168D3
:1022F00021F40051C160204600F008FF2068016908
:1023000021F4904101612068416921F02A01416175
:102310002068C16841F40051C160E563202084F861
:10232000390084F83A00002070BD00002DE9F0412A
:10233000064600682D4986B0884254D12C480024B6
:10234000016841F0100101600068694600F010006A
:1023500005904FF4C060009002200190012002908F
:1023600003200390072004902248FFF7E3F9234D50
:1023700021484FF000672860C5E901744FF4806878
:10238000C5E903486C61AC61EC612C6228466C6263
:10239000FFF7E0F818B1792119A001F04CF8756346
:1023A000AE63164D144860357830E5E802074020EA
:1023B000A5E81101114845F814496030AC61EC61A1
:1023C0002C626C62FFF7C6F818B18B210CA001F0EB
:1023D00032F83563002205212520AE63FFF722FB8A
:1023E0002520FFF713FB06B0BDE8F0810010014087
:1023F000443802400000024040640240B403002020
:102400002E2E2F5372632F75736172742E6300002A
:1024100070477047FEE700000D4A00B50023C2F880
:10242000A0320C48016821F440210160016841F4A8
:1024300080210160C2F8A432022002F5287202F065
:1024400067FA01201060022002F062FA136000BDFA
:1024500000804042000402400E4810B5016886B07A
:1024600041F00201016000684FF4407400F0020086
:1024700005900120CDE900400290022003906946BA
:102480000548FFF757F9012221460448FFF72FFAC4
:1024900006B010BD30380240001402400004024073
:1024A0000D4A10B50023C2F8A0320C48016821F48F
:1024B00040210160016841F4802101600124C2F8DB
:1024C000A442022002F5287202F022FA14600220CF
:1024D00002F01EFA136010BD00804042000402406A
:1024E000F0B5054614480024016821F4402101603C
:1024F00001680160114B224626460127C3F8A062FD
:10250000022002F005FAC3F8A0726006040ED3F8A8
:10251000240208B1641CE4B2012002F0F9F9521C53
:10252000D2B2082AEAD31DB1FFF776FF2046F0BDEC
:10253000FFF7B6FFFAE700000004024000804042C7
:1025400070B504461248016821F440210160016819
:1025500041F4802101600F4A0025C2F8A0522B46A9
:102560000126E009C2F8A4026006040E022002F06F
:10257000CFF9C2F8A062022002F0CAF9C2F8A05254
:10258000022002F0C5F95B1CDBB2082BE9D370BD59
:1025900000040240008040420D4800B5016821F46B
:1025A00040210160016841F480210160094A012055
:1025B000C2F8A402C2F8A002042002F5287202F0B8
:1025C000A7F900235360042002F0A2F9136000BDB4
:1025D00000040240008040420E4800B5016821F42A
:1025E00040210160016841F4802101600A4A002015
:1025F000C2F8A002C2F8A402042002F5287202F078
:1026000087F901201060506004205DF804EB02F0AF
:102610007FB900000004024000804042124810B51B
:102620000168002221F440210160016801600F4B24
:102630000124C3F8A442204602F06AF9C3F8A0427C
:10264000012002F065F907E0521CD2B2FA2A03D940
:10265000FFF7C2FF012010BDD3F824020028F3D1F8
:10266000C3F8A00210BD00000004024000804042F8
:102670007CB514460D4606466B4606223B21682073
:1026800000F0B2F800280BD1BDF8001049BA318033
:10269000BDF8021049BA2980BDF8041049BA21805A
:1026A0007CBD7CB514460D4606466B46062243218A
:1026B000682000F099F800280BD1BDF8001049BA45
:1026C0003180BDF8021049BA2980BDF8041049BA1A
:1026D00021807CBD08B56B4602224121682000F0B4
:1026E00083F8BDF8000040BA00B2FDF7E2FF9FEDAD
:1026F0000D1B53EC112BFDF76DFF9FED0C1B53ECE5
:10270000112BFDF74EFEFEF711F800EE100ADFED7B
:10271000090A20EE200ABDEEC00A10EE100A00B22F
:1027200008BD00000000000000407540A4703D0A94
:10273000D74342400000C84210B5FFF78DFE80210C
:102740006B2000F0C0F8642002F0E0F800216B205C
:1027500000F0B9F8032000F082F8002000F07AF8C9
:10276000322000F099F80021382000F0ACF8002168
:102770006A2000F0A8F80021232000F0A4F88021AE
:10278000372000F0A0F8752000F011F8682801D07B
:10279000012010BD01216B2000F095F800216C2074
:1027A00000F091F8322000F077F8002010BD10B54D
:1027B0000446FFF7F1FED020FFF7C2FEFFF72EFF21
:1027C0002046FFF7BDFEFFF729FFFFF7E5FED1200A
:1027D000FFF7B6FEFFF722FF0020FFF781FE044659
:1027E000FFF7FAFE204610BD2DE9F0411D461446C4
:1027F0000F460646FFF7D0FE7006000EFFF7A0FE5C
:10280000FFF70CFF20B1FFF7E7FE0120BDE8F081E4
:102810003846FFF795FEFFF701FFFFF7BDFE0120E9
:1028200000EB4600C0B2FFF78BFEFFF7F7FE09E0B2
:10283000012C0DD05FF00100FFF752FE641E05F879
:10284000010BE4B2002CF3D1FFF7C6FE0020DDE758
:102850000020F1E7C006010E1C2000F034B8C006CD
:10286000010E1B2000F02FB8BC2801D3012110E07D
:10287000622801D302210CE02A2801D3032108E0B9
:10288000142801D3042104E00A2801D3052100E023
:1028900006211A2000F017B810B504464FF47A70DC
:1028A000844201D9044602E0042C00D20424B0FB87
:1028B000F4F0401EC1B2192000F005F86008BDE830
:1028C0001040FFF7D1BF70B50C460546FFF764FE18
:1028D000D020FFF735FEFFF7A1FE50B92846FFF7DD
:1028E0002FFEFFF79BFE2046FFF72AFEFFF796FE1E
:1028F00018B1FFF771FE012070BDFFF76DFE0020DB
:1029000070BD2DE9F0411E4615460F460446FFF7FF
:1029100043FE6006000EFFF713FEFFF77FFE60B96F
:102920003846FFF70DFEFFF779FE00240CE0305D1E
:10293000FFF706FEFFF772FE20B1FFF74DFE012004
:10294000BDE8F081641CE4B2AC42F0D3FFF744FE72
:102950000020F5E7114810B50F49016003214160DF
:1029600000214FF400228160C0E903124FF44012AD
:102970004261017641768176C17601770121417706
:10298000FEF7B7FB002805D0BDE810404F2104A09A
:1029900000F051BD10BD000000680040C0020020E2
:1029A0002E2E2F5372632F63616E2E630000000082
:1029B0000D4808B5016841F48001016000680022FB
:1029C00000F48000009005213A20FFF72BF83A2010
:1029D000FFF71CF8002205214620FFF723F8BDE889
:1029E00008404620FFF712B83038024010B590B0CA
:1029F000142211496846FDF7A3FC0021684603F044
:102A0000D0FE0E4C0C491422A060143105A8FDF72D
:102A100097FC002105A803F0C4FE0749206014229A
:102A200028310AA8FDF78CFC00210AA803F0B9FEA2
:102A3000606010B010BD0000A085000854000020A8
:102A400000B5184887B04FF0204101601649416039
:102A50000621816000211022C160C0E90412816159
:102A6000C16113020162C0E90913C16201634163DC
:102A7000816341640F20FF230090CDE90103CDE97C
:102A800003021120CDE90501002269460548FFF740
:102A900077FA002803D0602104A000F0CCFC07B036
:102AA00000BD0000E8020020040100A02E2E2F53DC
:102AB00072632F66736D632E630000002DE9F04191
:102AC000434886B00024016841F0100101600168AC
:102AD00001F010010591016841F0200101600168D9
:102AE00001F020010591016841F080010160016859
:102AF00001F080010591016841F004010160016865
:102B000001F004010591016841F0010101600168D3
:102B100001F001010591016841F0020101600168C5
:102B200001F002010591016841F0080101600168AE
:102B300001F008010591016841F040010160006861
:102B4000244F00F040004FF4C0660590002231464B
:102B50003846FEF7CCFEDFF8808000224FF40341B8
:102B60004046FEF7C4FE1C2001258DE83100694671
:102B70001A48FEF7DFFD0096CDE901546946384654
:102B80000394FEF7D7FD16480095CDE90104694688
:102B90001448FEF7CFFD02200095CDE901406946BB
:102BA0001148FEF7C7FDE8030090CDE901546946DE
:102BB00040460394FEF7BEFD7010CDE90005CDE957
:102BC000025469464046FEF7B5FD06B0BDE8F08107
:102BD000303802400014024000040240001002405D
:102BE00000001110000802400000024010B5174814
:102BF00088B015490024C0E900148460C4600461F1
:102C0000FFF70BFA18B1472111A000F014FC0F4890
:102C1000FFF7B4FA18B14C210DA000F00CFC6020B5
:102C2000CDE9000402940022694608480494FFF7A5
:102C30003DFA18B1552106A000F0FDFB0348FFF74F
:102C40001BFA08B010BD0000001C00403803002033
:102C50002E2E2F5372632F74696D2E6300000000B7
:102C60000D4810B50B4901604FF4E131416000217E
:102C700081600C22C160C0E904128161C161FFF76B
:102C800023FB002805D0BDE810404F2103A000F031
:102C9000D2BB10BD00100140740300202E2E2F5314
:102CA00072632F75736172742E630000FEE77047C4
:102CB0000907090E002806DA00F00F0000F1E020F5
:102CC00080F8141D704700F1E02080F80014704770
:102CD00010B504462DED048BB0EE418AF0EE608A0B
:102CE0000A4860640A48A064B0EE409A204603F0A7
:102CF00015FEA16CB0EE481AF0EE680AB0EE490A73
:102D0000BDEC048B2046BDE8104008471D69000853
:102D10002D6900084FF47A7401212246084602F01A
:102D2000A3FD012003F014FDF6E710B5FEF7EAFD60
:102D3000BDE8104003F02BBD30B5244893B000250A
:102D4000016841F080510160006800F080501190EE
:102D50001F48016841F4804101600068022400F4CA
:102D60008040119001200090000401908001CDE985
:102D7000064008AA0420A82182E813000B906846A8
:102D8000FEF770FF00B1FEE70CA90F2081E83100CB
:102D90004FF4A0500F904FF48050109005210CA8D4
:102DA000FEF772FE00B1FEE7FEF706FF4FF47A7100
:102DB000B0FBF1F0FFF71DF90420FFF70EF9002238
:102DC0000F21501EFEF72EFE13B030BD40380240DA
:102DD000007000401048016841F4700101600F4824
:102DE000016841F0010101600C4A002108321160C4
:102DF00002680B4B1A400260031D0A4A1A600268FF
:102E000022F48022026005480C3001600249580615
:102E1000803908607047000088ED00E0003802400B
:102E2000FFFFF6FE10300024F0B50268234B244D5E
:102E3000244E254F254C4FF0804C984209D06045D8
:102E400007D0A84205D0B04203D0B84201D0A0427A
:102E500004D122F0700E4A6842EA0E0298421BD05A
:102E6000604519D0A84217D0B04215D0B84213D04F
:102E7000A04211D0164DA8420ED0164DA8420BD03C
:102E8000154DA84208D0154DA84205D0144DA842B2
:102E900002D0144DA84203D122F44075CA682A43D7
:102EA00002608A68C2620A688262984201D0A042C7
:102EB00001D10969016301214161F0BD00000140B8
:102EC0000004004000080040000C004000040140E5
:102ED000004001400044014000480140001800400B
:102EE000001C00400020004030B5026A22F00102C0
:102EF0000262026A436884690D6824F07304254302
:102F000022F002048A6822430B4CA04202D00B4CF0
:102F1000A0420BD122F00804CA6823F44073224374
:102F20004C6922F004021C438B6923434360856192
:102F300049684163026230BD000001400004014065
:102F400030B5026A22F010020262026A43688469A4
:102F50000D6824F4E64444EA05248D6822F020023A
:102F600042EA05120D4DA84202D00D4DA8420ED1E5
:102F7000CD6822F0800242EA05124D6923F44063D5
:102F800043EA85038D6922F0400243EA85034360EA
:102F9000846149688163026230BD00000000014025
:102FA0000004014030B5026A22F480720262036AB2
:102FB0004268C46923F4007324F073050C682C4341
:102FC0008D6843EA05230D4DA84202D00C4DA8425E
:102FD0000ED1CD6823F4006343EA05234D6922F442
:102FE000405242EA05128D6923F4806342EA0512D9
:102FF0004260C4614968C163036230BD00000140A2
:103000000004014030B5026A22F480520262046A70
:103010004268C3690D6823F4E64343EA05238D68DB
:1030200024F4005444EA0534084DA84202D0084D67
:10303000A84204D14D6922F4804242EA85124260DE
:10304000C36149680164046230BD000000000140B2
:103050000004014010B5806B0021C185C184FFF7D9
:10306000A9F810BD0168CA6822F49072CA600168AC
:103070004A6922F001024A61202180F83A10704723
:1030800010B590F83A10222901D0022010BD8168B5
:10309000B1F5805F11D00169002901681FD049682E
:1030A00001F07F03816A4A1C82620B70C18D491E48
:1030B0000904090CC18518D026E00269816A002A3A
:1030C0000268526805D0D2B20A80816A491C8162C6
:1030D000ECE7C2F308020A80816A891CF7E74A68B4
:1030E000816A4B1C83620A70E0E70168CA6822F4B7
:1030F0009072CA6001684A6922F001024A61202187
:1031000080F83A10FFF784F9002010BD2DE9F04156
:1031100004460068016921F44052E16811430161ED
:103120002168C86849F20C6290432369A268E56986
:103130001A4363692B431A430243CA6021684869F2
:1031400020F44072A06910434861E1696425B1F53B
:10315000004F9748974A21684FF032083FD091427C
:1031600001D081427CD1FEF73DFD00EBC00101EBB7
:10317000001061688900B0FBF1F6FEF733FD00EB4B
:10318000C00101EB001061688900B0FBF1F0B0FBF9
:10319000F5F06FF01801484306EB800108EB0110D1
:1031A000B0FBF5F000F0F006FEF71CFD00EBC001EF
:1031B00001EB001061688900B0FBF1F0B0FBF5F0A5
:1031C00006EB0016FEF70EFD00EBC00101EB001050
:1031D00061688900B0FBF1F7FEF704FDD2E091428F
:1031E00001D081423DD1FEF7FDFC00EBC00101EBB7
:1031F000001061684900B0FBF1F0B0FBF5F006018A
:10320000FEF7F0FC00EBC00101EB00106168490023
:10321000B0FBF1F7FEF7E6FC00EBC00101EB00109C
:1032200061684900B0FBF1F0B0FBF5F06FF01801F8
:10323000484307EB800108EBC100B0FBF5F000F05C
:10324000F80006EB4006FEF7CDFC00EBC00101EBF9
:10325000001061684900B0FBF1F7FEF7C3FC3CE0E9
:1032600055E0FEF7AFFC00EBC00101EB0010616818
:103270004900B0FBF1F0B0FBF5F00601FEF7A2FC4F
:1032800000EBC00101EB001061684900B0FBF1F7F1
:10329000FEF798FC00EBC00101EB001061684900EB
:1032A000B0FBF1F0B0FBF5F06FF01801484307EB0D
:1032B000800108EBC100B0FBF5F000F0F80006EB70
:1032C0004006FEF77FFC00EBC00101EB00106168D7
:1032D0004900B0FBF1F7FEF775FC00EBC00101EB14
:1032E000001061684900B0FBF1F0B0FBF5F06FF041
:1032F0001801484307EB800108EBC100B0FBF5F073
:1033000000F00700216830448860BDE8F081FEF7D6
:1033100059FC00EBC00101EB001061688900B0FBB3
:10332000F1F6FEF74FFC00EBC00101EB0010616805
:103330008900B0FBF1F0B0FBF5F06FF018014843E5
:1033400006EB800108EB0110B0FBF5F000F0F00691
:10335000FEF738FC00EBC00101EB0010616889004A
:10336000B0FBF1F0B0FBF5F006EB0016FEF72AFC1F
:1033700000EBC00101EB001061688900B0FBF1F7C0
:10338000FEF720FC00EBC00101EB00106168890032
:10339000B0FBF1F0B0FBF5F06FF01801484307EB1C
:1033A000800108EB0110B0FBF5F000F00F00A9E779
:1033B000001401400010014090F83910212901D07B
:1033C000022070478168B1F5805F016A0BD04A1C0A
:1033D0000262026809785160C18C491E0904090C17
:1033E000C1840ED017E009880268C1F3080151605A
:1033F00001690029016A02D0491C0162ECE7891CBD
:10340000FBE70168CA6822F08002CA600068C168F0
:1034100041F04001C16000207047000010B5044831
:1034200003F020FFBDE810400148FEF7C5BE0000D4
:1034300074030020FEE7FEE70FB4054B10B503A9A7
:10344000044A029800F0BCFD10BC5DF814FB0000BB
:1034500049520008D800002003B4019841000098A8
:1034600050EAC12018BF04204A0D18BF40F00100E7
:1034700040F2FF72B2EB515F08BF40F0020001283A
:1034800008BF052002B0704770B5C1482DED020B92
:103490002DED0E8B82B0119D25F000449FEDBEDB1B
:1034A0009FEDBFEB84423EDBA4F140511098A1F1A7
:1034B0007F6108430FD0BC48844202DC28D11098B9
:1034C00030B39DED100B02B0BDEC0E8B02B0BDE829
:1034D000704000F069BC9DED100B53EC1D2B51ECBE
:1034E000100BFDF705F89DED100B41EC180B53EC9C
:1034F0001E2B51EC100BFCF7FBFF53EC182BFCF7C9
:1035000050FF41EC100B02B0BDEC0E8B02B070BD51
:10351000012000F08DFC02B0BDEC0E8B02B0BDE8C6
:10352000704000F055BCA1489FEDA18B844256DA53
:103530009DED100BB4F1795F0ADA51EC100BFFF737
:103540008BFF042808BF00F053FC9DED100BDAE759
:1035500053EC102B51EC100BFCF7CAFF41EC190B8C
:1035600095480621B0EE490AF0EE690A784400F069
:103570009FFB53EC192B51EC100BFCF7B9FF41ECFE
:103580001A0B8E48B0EE490AF0EE690A042178441D
:1035900000F08EFB53EC192B51EC100BFCF7A8FF3D
:1035A00053EC182BFCF7FDFE41EC100B51EC1A0B01
:1035B00053EC102BFDF70EF8CDE900019DED000B4B
:1035C00053EC102B9DED100B51EC100BFCF790FF02
:1035D0009DED101B53EC112BFCF7E3FED2E09DEDAB
:1035E000100B51EC100B01F023FE53EC182BFCF7E1
:1035F0007CFF9FED730BCDE9000153EC102B9DED8B
:10360000000B51EC100BFCF773FF41EC190B6E48EB
:103610000621B0EE490AF0EE690A784400F048FB52
:1036200053EC192B51EC100BFCF762FF41EC1B0B18
:103630006648B0EE490AF0EE690A0421784400F0C9
:1036400037FB53EC192B51EC100BFCF751FF53ECEB
:10365000182BFCF7A6FE41EC1C0B51EC190B03F0E8
:1036600081FC41EC180B5A489FED5BABA04222DC79
:1036700053EC1C2B51EC1B0BFCF7ACFFCDE900010C
:103680009DED000B51EC180B53EC102BFCF730FFA9
:1036900053EC182BFCF785FE53EC1A2BFCF728FF94
:1036A00053EC1D2BFCF71EFF53EC1E2BFCF71DFFEC
:1036B00041EC100B5FE08DED008B002000909DED44
:1036C000000B51EC180B53EC102BFCF76AFE9DED30
:1036D000000B41EC1E0B53EC102B51EC100BFCF7C4
:1036E00007FF53EC192BFCF700FF53EC1E2BFCF7E4
:1036F00071FF41EC190B53EC1C2B51EC1B0BFCF72D
:1037000069FF41EC1B0B53EC1A2B51EC190BFCF726
:10371000EFFE53EC1D2BFCF7E8FE41EC190B53ECCC
:103720001A2B51EC180BFCF7E3FE53EC1B2BFCF7A8
:10373000DFFE53EC192BFCF7D5FE9DED000B41ECA1
:10374000180B53EC1A2B51EC100BFCF7D1FE9FED2C
:10375000249B53EC192BFCF7C8FE41EC100B51ECE9
:10376000180B53EC102BFCF7BDFE53EC192BFCF798
:10377000BCFE41EC100B002D3FF7C5AE51EC100B19
:1037800081F0004141EC100BBDE60000000000009C
:103790000000F03F00000000075C143326A6913CB7
:1037A000182D4454FB21F93F0000F07F0000E03F5A
:1037B000000000000000F03F905000009E5000000C
:1037C000000000000000E03FE24F0000F04F00006A
:1037D0003333EF3F00000000000000000000004015
:1037E000182D4454FB21E93F70B59B482DED020B89
:1037F0002DED068B079D25F00044A04218DC97486C
:10380000844202DC0AD1069840B19DED060BBDEC66
:10381000068B02B0BDE8704000F0C6BA002DCCBFE8
:103820009FED8F0B9FED900BBDEC068B02B070BD32
:103830008F48A04215DD8F48A042D8BF4FF0FF341B
:1038400058DD9DED060B51EC100BFFF705FE04282B
:1038500008BF00F0CDFA9DED060BBDEC068B02B063
:1038600070BD9DED060B51EC100B01F0E1FCCDE9B4
:10387000060181489FED828BA0423CDD8248A04238
:103880001FDD00249FED82AB9DED060B53EC1A2B40
:1038900051EC100BFCF785FD9DED060B41EC190B6F
:1038A00053EC1A2B51EC100BFCF722FE53EC182BA7
:1038B000FCF718FE53EC192BFCF78CFECDE9060142
:1038C00049E09DED060B012453EC182B51EC100B35
:1038D000FCF767FD9DED060B41EC190B53EC182B23
:1038E00051EC100BFCF7FEFD53EC192BFCF772FEAC
:1038F000CDE906012FE06848A0421FDD02249FEDBC
:10390000689B9DED060B53EC192B51EC100BFCF74B
:10391000EFFD53EC182BFCF744FD9DED060B41EC3D
:10392000180B53EC192B51EC100BFCF7DBFD53EC8F
:10393000182BFCF74FFECDE906010CE09DED060BC0
:10394000032453EC102B9FED580B51EC100BFCF79C
:1039500041FECDE906019DED060B53EC102B51EC19
:10396000100BFCF7C5FD41EC180B53EC182BFCF7C2
:10397000BFFD41EC190B4E480621B0EE490AF0EEAE
:10398000690A784400F094F953EC182B51EC100BB1
:10399000FCF7AEFD41EC180B4648B0EE490AF0EEDC
:1039A000690A0521784400F083F953EC192B51EC96
:1039B000100BFCF79DFD41EC100B51EC180B53EC78
:1039C000102B002C0EDAFCF7ECFC9DED061B53ECE3
:1039D000112BFCF78DFD9DED061B53EC112BFCF715
:1039E00084FD35E0FCF7DDFC9DED061B53EC112B4F
:1039F000FCF77EFD41EC100B2F48784400EBC4002F
:103A000090ED001B51EC100B53EC112BFCF76AFDF1
:103A10009DED061B53EC112BFCF764FD41EC100BE4
:103A20002648784400EBC40090ED001B51EC100BCD
:103A300053EC112BFCF759FD41EC100B002DA2BFEC
:103A4000BDEC068B02B070BD51EC100B81F0004153
:103A500041EC100B01E70000000010440000F07F73
:103A6000182D4454FB21F93F182D4454FB21F9BF74
:103A70000000DC3F0000203E0000F33F000000009B
:103A8000000000000000F03F0000E63F00000000E2
:103A90000000000000000040008003400000000023
:103AA000000000000000F83F000000000000F0BF30
:103AB000324D0000E84C0000724C00002A4C00001F
:103AC00070B56B4E2DED040B2DED028B82B0DDF841
:103AD0001CC0DDE905235C422CF000411C4341EA97
:103AE000D474049D22F00040B44205D86C422C43AB
:103AF00040EAD474B4420BD99DED061B9DED040B36
:103B000002B0BDEC028B04B0BDE8704000F056B9C5
:103B1000ACF14054A4F17F641C430BD0022404EAAE
:103B2000AC7444EAD27405439FED538B9FED542B44
:103B300007D015E09DED040B51EC100B00F034FEA6
:103B400042E0002C11BF012C9DED040B02B0BDEC36
:103B5000028B04BF04B070BD022C38D0032C3BD0C4
:103B60000B439FED491B9FED4A0B0AD0B14218D180
:103B7000B04209D121F0804120F0804007910590AA
:103B80000FE0002A15DA10E0434B7B44002C08BFFD
:103B900093ED000B0DD0012C10D0022C17D0032C6C
:103BA0001AD0B0421DD1002A03DAB0EE410AF0EE7D
:103BB000610A02B0BDEC028B04B070BD93ED000B46
:103BC00051EC100B81F0004141EC100BF1E7B0EE2D
:103BD000480AF0EE680AECE7B0EE420AF0EE620A3C
:103BE000E7E7401A00153C28C8BF8DED000B19DC33
:103BF000BCF1000FBEBF10F13C0F9FED290B8DED06
:103C0000000B0FDB9DED060B53EC102B9DED040B11
:103C100051EC100BFCF7DEFC01F00AFB00F0C4FDD8
:103C2000CDE90001002C08BF9DED000BC1D0012C97
:103C300010D0022C9FED1C0B53EC102B9DED000BB4
:103C400051EC100B0DD0FCF74DFC53EC182BFCF78E
:103C500049FCB9E7019880F0004001909DED000B10
:103C6000A7E7FCF73FFC53EC182BFCF73EFCABE757
:103C70000000F07F00000000182D4454FB21094093
:103C8000182D4454FB2109C0182D4454FB21F9BFC1
:103C9000182D4454FB21F93F5A4B0000000000004E
:103CA0000000000000000000075C143326A6A13CC1
:103CB00070B504462DED028B4D1E00EBC500B0EE35
:103CC000408AF0EE608A90ED000B35F0060017D0C8
:103CD00053EC182B51EC100BFCF70AFC41EC100BC9
:103CE0006D1E04EBC50090ED001B51EC100B53EC66
:103CF000112BFCF756FB41EC100B35F00600E7D119
:103D0000022D36D0042D1CD0062D1CBFBDEC028B1D
:103D100070BD53EC182B51EC100BFCF7E9FB94ED44
:103D20000A1B53EC112BFCF73CFB53EC182BFCF754
:103D3000DFFB94ED081B53EC112BFCF732FB41EC3D
:103D4000100B53EC182B51EC100BFCF7D1FB94ED3E
:103D5000061B53EC112BFCF724FB53EC182BFCF740
:103D6000C7FB94ED040B53EC102BFCF71AFB41EC52
:103D7000100B53EC182B51EC100BFCF7B9FB94ED26
:103D8000021B53EC112BFCF70CFB53EC182BFCF72C
:103D9000AFFB94ED001B53EC112BFCF702FBBDECC9
:103DA000028B41EC100B70BD10B553EC102B51EC95
:103DB000100BFCF7F6FA41EC100B10BD10B553ECEC
:103DC000112B51EC100BFCF7ECFA41EC100B10BD71
:103DD0009FED050B10B553EC102B51EC100BFCF7BD
:103DE000F9FB41EC100B10BD0000000000000000CA
:103DF0009FED050B10B553EC102B51EC100BFCF79D
:103E000077FB41EC100B10BD00000000000000101B
:103E100002E008C8121F08C1002AFAD17047704793
:103E2000002001E001C1121F002AFBD170470000F1
:103E30000149086070470000DC0000202DE9FF5FA9
:103E400082B00021DDE90430020DDDF840B003430B
:103E500018D044F61050A2F2FF32424315141198C4
:103E600001281FD0A5EB0B00401C5FEA000A4FF0B1
:103E700000064E4FDFF83891B046504615D5CAF1CE
:103E8000000413E0119801244AA3012801D16FEA2C
:103E90000B010298119AC0E90031C0E9024206B054
:103EA000BDE8F09FCBF10000DFE704460021404A67
:103EB000491842EB0450CDE9001012E0E00707D0AA
:103EC00032463B4640464946FCF712FB804689464F
:103ED00032463B4610461946FCF70AFB06460F469B
:103EE0006410002CEAD1DDE90401DDE90023BAF118
:103EF000000F06DAFCF7FCFA42464B46FCF7F8FAEC
:103F000005E0FCF767FB42464B46FCF763FB0446C3
:103F10000E460022284BFCF7F1FB03D84FF0FF3090
:103F2000014607E00022254B20463146FCF739FACE
:103F3000FCF7F3FC102409E0002C0ADB0A22002322
:103F4000FCF79CF9039B30321A55641E50EA0102BB
:103F5000F2D1641C039AC4F111031444119A012A8A
:103F600003D0012208430DD10AE0084304D0002009
:103F70004FF0110B119072E7A3EB0B056D1E0DE0D6
:103F80005B4504DD4FF0000205F1010504E003DAB2
:103F90004FF00002A5F10105002AECD0029811991A
:103FA000C0E90231C0E9004579E700000000144093
:103FB0000000F03F300000000000F0430000E03F50
:103FC0002DE9FF4F95B09B468946064600250FE236
:103FD000252877D100242746F84A0121059400E0DE
:103FE000044316F8013F203B01FA03F01042F7D1D9
:103FF00030782A2811D06FF02F033078A0F13002EA
:10400000092A16D8059A44F0020402EB820203EB57
:1040100042021044761C0590EFE759F8042B0592F4
:10402000002A03DA504244F40054059044F002049C
:10403000761C30782E2816D116F8010F44F00404AF
:104040002A280DD06FF02F023078A0F13003092B11
:1040500009D807EB870302EB4303C718761CF3E785
:1040600059F8047B761C30786C280FD006DC4C287D
:1040700017D068280DD06A2814D104E0742810D015
:104080007A280FD10DE044F400140AE044F48014BF
:1040900001E044F440147278824202D104F58014A5
:1040A000761C761C307866280BD013DC582877D025
:1040B00009DC002875D04528F6D04628F4D04728DA
:1040C0001AD19DE118E0632835D0642879D065289D
:1040D00012D195E1702873D008DC6728F1D06928E7
:1040E0006FD06E280DD06F2806D1B5E073282CD084
:1040F000752875D0782874D05A46179990476D1C4A
:1041000075E1C4F30250022809D003280DD0D9F874
:10411000001004280DD00D6009F1040967E1D9F8F9
:104120000010EA17C1E90052F6E7D9F800100D8037
:10413000F2E70D70F0E719F8041B8DF8001000206D
:104140008DF80100EA46012003E059F804AB4FF076
:10415000FF3061074FF0000102D40DE008F10101CA
:104160008846B9420FDA8045F8DB1AF808100029B2
:10417000F4D108E008F1010188468142FADB1AF81F
:1041800008100029F6D105985B46A0EB08072146E8
:104190003846179A00F094FA284400EB080507E027
:1041A0004DE029E10DE01AF8010B5A4617999047A6
:1041B000B8F10108F7D25B4621463846179A13E159
:1041C00042E00A220092C4F302524FF0000A022A8F
:1041D00008D059F804CB032A4FEAEC710AD00DE05D
:1041E00029E02AE009F1070121F00702F2E802C103
:1041F000914609E00FFA8CFC4FEAEC71042A03D1D6
:104200004FFA8CFC4FEAEC71002907DA0A460021CC
:10421000DCF1000C61EB02012D2202E0220504D545
:104220002B228DF80420012203E0E20701D0202296
:10423000F7E7904659E00A2102E010220DE0102134
:104240004FF0000A00910BE010224FF0000A44F0FA
:1042500004040827009203E008224FF0000A0092AD
:10426000C4F30252022A05D059F804CB0021032AD4
:1042700008D009E009F1070121F00702F2E802C1C4
:10428000914605E01FFA8CFC042A01D10CF0FF0CCA
:104290004FF00008220728D5702806D0009B83F035
:1042A000100353EA0A0305D00EE040228DF80420E3
:1042B000012208E05CEA010206D030228DF80420D9
:1042C0008DF8050002229046009B83F0080353EA14
:1042D0000A030AD15CEA010201D1620705D5302246
:1042E0008DF804204FF001087F1E582804D034A018
:1042F00003900EA802900DE036A0F9E75346604601
:10430000009AFBF7BBFF84460398825C0298401E2C
:10431000029002705CEA0100F0D1029806A9081A26
:1043200000F1200A600702D524F4803400E0012760
:10433000574502DDA7EB0A0000E0002000EB0A0170
:10434000009005984144401A0590E00306D45B466E
:104350002146179A059800F0B3F90544002706E0B6
:1043600001A85A46C05D179990476D1C7F1C4745B0
:10437000F6DBE0030CD55B462146179A059800F062
:104380009FF9054404E030205A46179990476D1C68
:104390000099481E00900029F5DC08E00298029977
:1043A0005A460078491C0291179990476D1CBAF142
:1043B0000001AAF1010AF1DC65E100000928010011
:1043C000303132333435363738396162636465668B
:1043D000000000003031323334353637383941424D
:1043E000434445460000000000F058F90544761C9F
:1043F000307800287FF4ECAD19B02846BDE8F08F86
:10440000620700D4062709F1070222F0070CFCE836
:104410000223E14603F000485FEA080C02D00FF2E5
:10442000702C0DE05FEA045C02D50FF2682C07E007
:104430005FEAC47C02D00FF2602C01E0AFF2700C96
:104440004FF0FF3823F00043CDF850C065280CD062
:1044500006DC452809D046281DD047283DD13DE03F
:10446000662818D067287ED138E00021112F01DBA3
:10447000112000E0781CCDE9000106A90EA8FFF785
:10448000DDFCDDE90F010E9A03910021009207F196
:10449000010A04914DE04FF000400097CDE9011072
:1044A00006A90EA8FFF7CAFCDDE90F0203920E9BD6
:1044B00011990022DDF80CA00093049211B9791C27
:1044C00000EB010AB7EB0A0004D4C0F1FF3007F19A
:1044D000010A0490AAEB0700019044E0012F00DAE2
:1044E00001270021112F01DD112000E03846CDE920
:1044F000000106A90EA8FFF7A1FCDDE90F010E9A45
:104500000391002104910092BA4621070CD403992B
:10451000514500DA8A46BAF1010F05DD009AAAF189
:104520000101515C302908D0B84202DA10F1040FC1
:1045300006DA0121CDE9011015E0AAF10101E9E750
:10454000002805DC049901440491AAEB000102E073
:10455000411C514500DD8A460499401A401C0190D7
:104560004FF000400290200704D40198504501DB31
:10457000CDF8048000208DF84F0002980DF14F0710
:10458000B0F1004F25D02B200E9002984FF002087A
:1045900000280CDA404202902D200E9007E00A21FC
:1045A0000298FCF7DFF83031029007F8011DB8F1EE
:1045B0000001A8F10108F2DC02980028EFD1791E71
:1045C0000E980870307800F0200040F0450007F8A1
:1045D000020D12A8C01B00F107081498007800B162
:1045E000012000EB0A01019801EBE07105984144BC
:1045F000401A401E0590E00306D45B462146179AF8
:10460000059800F05DF805441498007818B15A46F2
:10461000179990476D1CE00324D55B462146179AF5
:10462000059800F04DF805441CE00498002807DBCD
:10463000DDE90301884203DD0098405C179901E041
:10464000179930205A469047049805F10105401CFF
:1046500004900198401E019004D12E205A461799CB
:1046600090476D1CBAF10001AAF1010ADDDC05E0FA
:1046700017F8010B5A46179990476D1CB8F10001C5
:10468000A8F10108F4DC5B462146179A0598ABE6D1
:104690002D0000002B000000200000002DE9F0415B
:1046A000044600251E461746880404D405E0394612
:1046B0002020B0476D1C641EF9D52846BDE8F08166
:1046C0002DE9F041044600251E469046C80301D559
:1046D000302700E02027880404D505E0414638460D
:1046E000B0476D1C641EF9D52846BDE8F081D0EDB9
:1046F000000AF4EEC00AF1EE10FA01DD80ED000AC6
:10470000D0ED000AB1EE400AF4EEC00AF1EE10FA64
:1047100001D280ED000A7047FEB506460D46002422
:10472000684600F09BFD00229FED1B1A6B4601219D
:1047300056F8227055F82200381A00D5404200EE93
:10474000100A03EB8200B8EEC00AD0ED000A20EE9A
:10475000010AF5EEC00AF1EE10FA0DD0C0EE201AF3
:10476000B7EE000A0D4F31EEC00AB0EEC00A10EEEF
:10477000100AB84207DC09E010EE100A084F38446E
:10478000084FB84202D301FA02F00443521C032A34
:10479000CEDB2046FEBD000000008037295C0F3EC6
:1047A000666666C19A99D90010B541EC100BFFF707
:1047B0001BF851EC100B10BD10B58AB0002101227E
:1047C000CDE906120391044605910E200091019156
:1047D00002911249CDE908208C4201D1CDE9042093
:1047E00069462046FCF766FA18B13A210CA0FEF79C
:1047F00022FE2046FCF798FD18B1412108A0FEF7E3
:104800001AFE10212046FCF7DDF918B1482104A05A
:10481000FEF711FE0AB0002010BD0000C00200200B
:10482000305F6273705C63616E5C6273705F636162
:104830006E2E630070B51E4C9FED1C0A4FF4FA55A6
:104840002DED028B00239FED1B8A84ED000A2A4682
:10485000B0EE481A84ED011A84ED028A84ED038AD1
:1048600084ED048A84ED068AF0EE480A032112489A
:10487000FEF72EFAD4ED040A94ED030AB0EE481ABE
:104880002B112A4603210D48FEF722FA94ED050A62
:10489000B0EE481AF0EE480ABDEC028B2A46BDE89D
:1048A0007040002303210648FEF712BA0000484377
:1048B000A00100200000000064410020B041002061
:1048C000FC41002038B50F480021006802684268AA
:1048D0000092C26842F01002C2600A4C0A4A94F880
:1048E0003A0020280DD13223A262A385E16321681A
:1048F000606B091DFCF798FE2068416941F040019A
:10490000416138BD7403002068010020FCF7B0BE8F
:1049100000EE100ADFED060AB8EE400A20EE200A8B
:10492000BCEEC00A10EE100A401EFDD27047000017
:104930005F186E4208B560B120208DF80000282075
:104940008DF8010030208DF8020038208DF803002A
:1049500004E0A32204216846FBF704FD6A46042113
:1049600040F69E2001F0CAFE01F088FB08BD000061
:104970003EB5044602208DF80000CA208DF80100E3
:10498000E3208DF8020009208DF803006A46042117
:10499000682001F0B3FEA3208DF80000610609D560
:1049A000C0218DF80110C8218DF80210C2218DF8A8
:1049B000031005E08DF801008DF802008DF803006A
:1049C00014F4C07F09D0C4218DF80410CC218DF8D7
:1049D0000510C6218DF8061005E08DF804008DF84D
:1049E00005008DF806008DF808008DF807008DF899
:1049F00009006A460A2140F6A72001F07FFEA007C1
:104A00004FF0D80503D020208DF8000001E08DF88C
:104A100000506A46012140F6B62001F06FFEA00664
:104A200001D5012000E0002000F08EF814F4C07FD2
:104A30001ED0E0050AD5B2208DF800008B208DF83D
:104A40000100B6208DF802009B2009E0B0208DF80F
:104A5000000080208DF80100B4208DF80200902025
:104A60008DF803006A46042140F6A22001F046FEBC
:104A7000E1074FF40B6022D0F8218DF800106A4650
:104A8000012101F03BFEFA21072000F0CFFA0720B8
:104A900000F09AFA012000F0B7FA642000F076FBEB
:104AA0004FF4FA7000F082FBC821254800F054FA58
:104AB000282000F069FA0A2000F076FA05E08DF867
:104AC00000506A46012101F019FEA00703D5D92044
:104AD0008DF8000001E08DF800506A46012140F297
:104AE0003D7001F00BFE600701D5012000E00020C1
:104AF00000F048F8E00601D5012000E00020FFF7B3
:104B000019FF104D44F00800688101F0B7FA002049
:104B1000A873600601D50620A87314F4C07F02D0E4
:104B2000A87B801DA87314F0140F02D0A87B10304E
:104B3000A873A00702D0A87B001DA87300203EBD6B
:104B400009E3CA02E00000200EB54FF4976310B1EC
:104B500006A107C901E008A207CA8DE807006A4656
:104B60000921184601F0CAFD0EBD0000B8AAB38D98
:104B7000B4980D355D000000B8AAAAAAB088C3C5D4
:104B8000C700000008B560B1C0208DF80000C22049
:104B90008DF80100C4208DF80200C6208DF80300B6
:104BA00004E08B2204216846FBF7DCFB6A46042103
:104BB00040F6982001F0A2FD01F060FA08BD000067
:104BC000C8234FF48062024940F6F63001F038B94C
:104BD000A87900082DE9FF4F89B01746DDE9165284
:104BE00000244D4E884681462C80A246B07B694603
:104BF00001F0D2F94FF0FF3B18B158460DB0BDE8B7
:104C0000F08F708910F0140F3ED0009909BA21F08E
:104C1000FF029DF803100A433A6001999DF807309E
:104C200009BA21F0FF0119437960029B9DF80B40FE
:104C30001BBA23F0FF032343BB60039C121424BA66
:104C400024F0FF0C9DF80F4009144CEA040C1024CA
:104C5000C7F80CC01B144FEA2C4712FB02F211FBE1
:104C6000012113FB03F217FB07221144A1F170612C
:104C7000B1F1007F04D901F001FAA5F800A0BCE76A
:104C8000298841F4807129804206694611D50A19A4
:104C9000A41D13885BBAA8F8003053885BBAA8F843
:104CA0000230928852BAA8F804202A8842F00802FA
:104CB0002A8010F4C07F11D00A19A41D13885BBA92
:104CC000A9F8003053885BBAA9F80230928852BA2A
:104CD000A9F804202A8842F070022A80800716D0A2
:104CE0000C44E07800F0C00500F03F016078C00798
:104CF00006D0C80801F007013268491C02B190478C
:104D00006078000703D5716809B1A80988470C9835
:104D100000F01AFE002071E7E000002030B50446E4
:104D200013A285B007CA8DE807004FF0FF35C82CE5
:104D300016D8C820B0FBF4F1491E080A8DF80C0003
:104D40008DF80D1003AA022140F2162001F0D6FCC6
:104D500030B96A460C2140F6C12001F0CFFC10B1F9
:104D6000284605B030BD054884810020F9E70000E1
:104D7000FEF2ABC4AAF1DFDFBBAFDFDFE000002053
:104D8000F8B53049098901F0030250F822404A077A
:104D900000D56442C1F3C1028B0650F8222000D531
:104DA0005242C1F3811350F82330C80500D55B424D
:104DB000254984FB0140850045EA947082FB01424D
:104DC000A40F44EA820483FB0121950F45EA810583
:104DD000010E8DF80010010C8DF80110010A8DF8FC
:104DE00002108DF803006A4604214FF4747001F03C
:104DF00085FC4FF0FF3688B9200E8DF80000200C9E
:104E00008DF80100200A8DF802008DF803406A46F3
:104E100004214FF4757001F071FC08B13046F8BD03
:104E2000280E8DF80000280C8DF80100280A8DF856
:104E300002008DF803506A4604214FF4767001F0A9
:104E40005DFCF8BDE000002009E3CA022DE9FF4146
:104E500004463CA004F00303006802903AA00068F6
:104E600003903AA006683AA0056802A8C15C8DF8D4
:104E70000010C4F3C101425C8DF80120C4F381121B
:104E8000805C8DF8020003A8C35C8DF80430415C9F
:104E90008DF80510805C8DF806006A46032140F20B
:104EA000264001F02BFC4FF0FF37E0BB01AA0321A5
:104EB00040F22A4001F022FCA8BBCDE90065600762
:104EC0000BD59DF8000040F001008DF800009DF822
:104ED000040040F001008DF80400A0060BD59DF8F9
:104EE000010040F001008DF801009DF8050040F040
:104EF00001008DF80500E0050BD59DF8020040F09B
:104F000001008DF802009DF8060040F001008DF8C8
:104F100006006A4603214FF4886001F0EFFB10B9E8
:104F200001AA032100E004E040F2314001F0E6FB79
:104F300018B1384604B0BDE8F0810648048100206D
:104F4000F8E700004CCD6C000CC92C0036567600FA
:104F500026466600E00000204FF47A7290FBF2F0E3
:104F600008B54843010E8DF80010010C8DF80110B2
:104F7000010A8DF802108DF803006A4604214FF4EF
:104F8000AE7001F0BBFB08BD0521B0FBF1F008B528
:104F9000010A8DF800108DF801006A4602214FF4D5
:104FA000AD7001F0ABFB08BD0521B0FBF1F008B519
:104FB000010A8DF800108DF801006A4602214FF4B5
:104FC000AC7001F09BFB08BD08B500218DF8001006
:104FD000C10702D030218DF80010810705D59DF85A
:104FE000001041F00C018DF80010400705D59DF828
:104FF000000040F003008DF800006A4601214FF4E4
:10500000A47001F07BFB08BD08B560B1042800D98D
:105010000420401E8DF800006A46012140F24F1026
:1050200001F06CFB08BD0120F3E7000070B50446F9
:105030002DED028B82B040074FF0FF357ED0B1F5E9
:10504000C86F7BD800EE101AB8EE400ADFED460AB2
:1050500001A880EE208A00F0A7FD9DF80400022838
:1050600006D0042810D0082835D0102874D13EE08E
:105070009FED3E0A28EE000ABCEEC00A10EE100AB0
:105080009FED3B0A82B20AE09FED3A0A28EE000A41
:10509000BCEEC00A10EE100A9FED370A82B228EE6D
:1050A000000A6E46BCEEC00A10EE100A81B2100A69
:1050B0008DF800008DF80120080A8DF802008DF8A7
:1050C0000310E00726D0324602214FF4EA7001F0C7
:1050D00015FB98BB17E09FED290A28EE000ABCEEED
:1050E000C00A10EE100A9FED260A82B2D7E79FEDA4
:1050F000250A28EE000ABCEEC00A10EE100A9FED49
:10510000220A82B2CBE7B21C02214FF4927001F066
:10511000F5FA98B9A0070DD56A4602214FF4EC7054
:1051200001F0ECFA50B9B21C02214FF4947001F076
:10513000E5FA18B9600714D56A4600E00CE00221D0
:105140004FF4EE7001F0DAFA30B9B21C02214FF4DC
:10515000967001F0D3FA20B1284602B0BDEC028B64
:1051600070BD0020F9E700000000484300008046C1
:1051700000004046000000460000C0450000804599
:1051800000004045000000450000C0440521B0FB80
:10519000F1F008B5010A8DF800108DF801006A469B
:1051A00002214FF4EF7001F0A9FA08BD0521B0FB10
:1051B000F1F008B5010A8DF800108DF801006A467B
:1051C00002214FF4ED7001F099FA08BD10B5028884
:1051D00042800B885CBA0480A21A8368B2F5805FB3
:1051E00004DD5B1EA2F50052836006E012F5805FCD
:1051F00003DA5B1C02F500528360C26104EB4332A8
:10520000838ADFED0A0AD21A00EE102AC260B8EED5
:10521000C00A80EE201ABDEEC10A80ED040A4A8859
:1052200052BA8280898849BAC18010BD610BB641EB
:1052300082B0CDE9000121F0004001909DED000B0E
:1052400002B051EC100B704738B504468DF80000E1
:1052500069460320ABBE204638BD00001FB504469A
:10526000274802AB042240680D210078FDF7BCFA04
:1052700010B1072004B010BD9DF808101C2000EAF2
:10528000D1029DF80B10DFED1F0AC1F301131A4381
:105290008DF800209DF80920C1F3810300EAD202B5
:1052A0001A438DF801209DF80A2001F0030100EA5D
:1052B000D20008439FED141A9FED140A8DF80200E6
:1052C00000216A46505C002804EB810002D080ED8A
:1052D000001A09E0C0ED000A0CE000BFD0ED001A92
:1052E00061EE801AC0ED001A535C5B1E13F0FF03E1
:1052F0005354F3D1491CC9B20329E3D30020B9E7C1
:1053000000000020000000007B14AE3E1D5A843FC8
:10531000098849BA01808182704700002DE9FE4F5B
:1053200005460120C14E8DF800004FF000088DF8B1
:10533000018030680C461746817C70686B460222FB
:105340000078FDF7DEFA4FF0FF3A00287AD1C82046
:10535000FFF7DCFA8DF8008030686B460122C17BD4
:1053600070680078FDF7CDFA0028EFD130686B4601
:105370000122417970680078FDF7C3FA0028E5D171
:1053800030686B460122817C70680078FDF7B9FABD
:105390000028DBD130686B460122C17D706800783F
:1053A000FDF7AFFA0028D1D130686B4601220179B0
:1053B00070680078FDF7A5FA0028C7D14FF00C09F6
:1053C0008DF8009030686B46012201797068007892
:1053D000FDF797FA002835D10F20FFF797FAB06A4A
:1053E0006B460122407A8DF8000030688178706841
:1053F0000078FDF786FA002824D1B06A6B460122B6
:10540000007A8DF800003068417870680078FDF708
:1054100078FA002873D1B06A807A0FB140F0E000CA
:105420008DF8000030686B46012281797068007841
:10543000FDF767FA002862D12FB1B06AC07A40F058
:10544000E00001E04AE018208DF8000030686B466B
:105450000122C17970680078FDF753FAF0BB17B1EB
:10546000C820FFF753FA40208DF8000030686B46E3
:105470000122017970680078FDF743FA70BB78204B
:105480008DF8000030686B46012241797068007821
:10549000FDF737FA10BB3220FFF738FA8DF800809D
:1054A000306847466B464179706801220078FDF705
:1054B00028FA98B931687068B046897A00786B46E6
:1054C0000222FDF791F948B9BDF80000AF6040BA7B
:1054D000B0FBF9F06F60C6B22F6000E00FE0A7608C
:1054E00067602760002739E0D8F80010D8F804007A
:1054F0006B46C97A00780C22FDF776F910B1504658
:10550000BDE8FE8FBDF80000236840BA02B2BDF8C6
:105510000200BDF804101A44226040BA626800B26A
:105520001044606049BAA06809B20844A060BDF8A0
:1055300006002B6840BA02B2BDF808001A4440BA0F
:1055400001B2BDF80A002A606A6840BA1144696075
:10555000A96800B208447F1CFFB2A860B742C3D359
:1055600028688322C117090441EA1041000400237E
:10557000FAF7B5FE32460023FAF7B1FE28606868F4
:105580008322C117090441EA104100040023FAF7FD
:10559000A6FE32460023FAF7A2FE6860A8688322BE
:1055A000C117090441EA104100040023FAF797FEED
:1055B00032460023FAF793FEA86020684FF4006596
:1055C000C117090441EA104100042A460023FAF7F2
:1055D00086FE32460023FAF782FE206060682A4683
:1055E000C117090441EA104100040023FAF777FECD
:1055F00032460023FAF773FE6060A0682A46C1179E
:10560000090441EA104100040023FAF768FE32461B
:105610000023FAF764FEA060002802DDA0F58030C8
:1056200001E000F58030A060002069E70000002064
:10563000F8B506462E480D46002440686B46032206
:1056400000780D21FDF7D0F808B10720F8BD9DF8CE
:105650000000002200F01F008DF800009DF80100FE
:105660009FED241A00F01F008DF801009DF8020044
:105670006B4600F01F008DF80200012156F8220051
:1056800055F82270C01B00D5404200EE100A985C0D
:10569000B8EEC00A60EE010AD0B1B3EE090ADFED40
:1056A000161A01E020EE210AC0B2401E10F0FF00E1
:1056B0009854F7D1C0EE801AB7EE000A0F4F31EEC2
:1056C000C00AB0EEC00A10EE100AB84207DC09E0CA
:1056D00010EE900A0A4F3844B0F1D97F02D901FA8E
:1056E00002F00443521C032AC8DB2046F8BD000028
:1056F000000000200000803754E3853F295C0F3E06
:105700000000E0BEEFF30580002800D001207047C4
:1057100000B5024600F00DF80346D01C00F009F871
:1057200043EAC003901D00F004F843EA801080B201
:1057300000BD90F90010002902DD4FF00000704715
:1057400002DA4FF00400704790F90110002902DDE1
:105750004FF00100704702DA4FF00500704790F9F2
:105760000200002802DD4FF00200704702DA4FF01D
:10577000060070474FF00700704700002DE9F04128
:105780002E4D2F4F2F4C012608B12E7001E02878A6
:10579000A0B110212046FCF7A5F8B0B108212046A1
:1057A000FCF7A0F888B104212046FCF79BF860B113
:1057B00001213846FCF796F8012806D01021204632
:1057C000FCF790F8012824D035E0052000F0C0FF58
:1057D0000020287010212046FCF784F880B10821B1
:1057E0002046FCF77FF870B104212046FCF77AF8D8
:1057F00058B101213846FCF775F8012807D01AE0A6
:105800000120BDE8F0810220FBE70320F9E7042036
:10581000F7E708212046FCF765F801280BD10421A1
:105820002046FCF75FF8012805D101213846FCF736
:1058300059F800B92E700020E3E700004000002076
:10584000000002400010024010B5064C0122510237
:105850002046FCF74CF820460122BDE8104091029A
:10586000FCF745B8001402402DE9F041244D904664
:105870000E4620B1012840D10024870231E00024E7
:105880004FF4007711E0002239462846FCF72FF844
:10589000C82000F05DFF012239462846FCF727F8B2
:1058A000C82000F055FF641CE4B2B442EBD30122DF
:1058B00039462846FCF71BF84FF47A7019E00022AD
:1058C00039462846FCF713F8C82000F041FF0122B2
:1058D00039462846FCF70BF8C82000F039FF641C55
:1058E000E4B2B442EBD3012239462846FBF7FFFF6E
:1058F0004046BDE8F04100F02BBFBDE8F08100005C
:1059000000140240FCF706F8FDF716FAFDF7D6F88A
:10591000FDF74EF8FDF7A4F9FDF768F9FDF71AF861
:10592000FDF78EF80448FEF747FFFEF7CBFFFDF7C3
:105930005DF800F01BFFFEE7C002002001460020DA
:10594000842900D0C81C7047704700002DE9F04141
:10595000124C20F00101002594F8240010B1002021
:10596000BDE8F081A07A4FF0FF3668B10840277C8F
:105970002074884200D0354641B1012001F0C6FABA
:1059800000F07CFB38B127743046E9E7207D00B198
:10599000012001F0BBFA2846E2E7000000000020E9
:1059A00070B50D462DED0C8B8EB006460CA902A8E5
:1059B0001446F7EE00BACDE900010BAB03AA09A922
:1059C00007A8FFF707F920B101200EB0BDEC0C8B42
:1059D00070BDBDF80800C0057ED59DED030AF8EE48
:1059E000C00A9FED450AB0EE00CA60EE809ADDED78
:1059F000040AF8EEE00A69EE8CCA20EE808ADDED3A
:105A0000050AF8EEE00A60EE808ADDED060AF8EE9F
:105A1000E00A20EE809AB8EE000A28EE00BA2BEEDB
:105A2000090A0CEEA80A10EE100AFAF753FE41EC30
:105A3000100BFDF729FD9FED31AB51EC100B53EC32
:105A40001A2BFAF755FDFAF771FE2BEE080A28EE2D
:105A50008CDA30600DEE680A30EE2B0A10EE100A78
:105A6000FAF738FE2DEE090A41EC1B0B0CEE880A02
:105A700010EE100AFAF72EFE41EC100BB0EE4B1AA6
:105A8000F0EE6B1AFEF71CF853EC1A2B51EC100BCE
:105A9000FAF72EFDFAF74AFE29EEA90A286008EE69
:105AA000080A08EEE80A09EE490A10EE100AFAF7A9
:105AB00011FE28EE280A41EC1B0B09EE890A20EEA4
:105AC0000C0A10EE100AFAF705FE41EC100BB0EECE
:105AD0004B1AF0EE6B1A00E00CE0FDF7F1FF53EC0F
