:020000040800F2
:100000000867002059020008CF370008F92C0008C3
:10001000CD370008BF0A0008BD40000800000000FE
:100020000000000000000000000000009D0100082A
:10003000DD0B000800000000F10100085338000843
:1000400073020008730200087302000873020008BC
:1000500073020008730200087302000873020008AC
:10006000730200087302000873020008730200089C
:10007000D90A000873020008E50A000873020008A4
:10008000F10A0008FD0A0008730200087302000864
:10009000730200087302000873020008730200086C
:1000A0005139000873020008730200087302000847
:1000B000730200085D3900086939000873020008FE
:1000C000730200087302000873020008730200083C
:1000D000730200085D400008754000088D4000086C
:1000E000730200087302000873020008730200081C
:1000F000730200087302000873020008730200080C
:1001000073020008730200087302000873020008FB
:1001100073020008730200087302000873020008EB
:1001200073020008090B0008150B00087302000891
:10013000730200087302000873020008CD0A000869
:1001400073020008C10A0008730200087302000865
:1001500073020008210B00082D0B0008A5400008C1
:10016000730200087302000873020008730200089B
:100170007302000873020008730200080000000008
:100180007302000873020008DFF80CD000F0EAFBED
:10019000004800476D6E0008086700202B4B196867
:1001A0000868B0E8F04F80F30988BFF36F8F4FF015
:1001B000000080F3118870470000000006480068C6
:1001C000006880F3088862B661B6BFF34F8FBFF353
:1001D0006F8F00DF00BF00BF08ED00E0DFF80C000C
:1001E000016841F470010160704700BF88ED00E0D4
:1001F000EFF30980BFF36F8F144B1A681EF0100FD6
:1002000008BF20ED108A20E9F04F106008B44FF0CD
:10021000500080F31188BFF34F8FBFF36F8F08F04A
:100220005FFC4FF0000080F3118808BC1968086873
:10023000B0E8F04F1EF0100F08BFB0EC108A80F34A
:100240000988BFF36F8F704700BF00BF18010020FF
:10025000EFF30580704700000648804706480047D6
:10026000FEE7FEE7FEE7FEE7FEE7FEE7FEE7FEE766
:10027000FEE7FEE7FD380008890100082DE9F05F80
:100280000546002092469B46884606468146402405
:100290001BE0284641464746224600F07CFA53467A
:1002A0005A46C01A914110D311461846224600F012
:1002B00063FA2D1A67EB01084F4622460120002100
:1002C00000F05AFA17EB00094E41201EA4F1010478
:1002D000DFDC484631462A464346BDE8F09F2DE91B
:1002E000F0410024061B254671F1000605DA0124C1
:1002F0000027D0EB070067EB0101161E73F1000623
:1003000005DA0027D2EB0702012567EB0303FFF7AD
:10031000B5FF86460E4617469C46AC4204D00025E3
:10032000D0EB050E65EB010624B10020D2EB0007EF
:1003300060EB030C704631463A466346BDE8F081F7
:1003400040EA01039B0703D009E008C9121F08C057
:10035000042AFAD203E011F8013B00F8013B521ED7
:10036000F9D27047D2B201E000F8012B491EFBD24E
:1003700070470022F6E710B513460A4604461946B0
:10038000FFF7F0FF204610BD30B5044600200346BD
:1003900000E05B1C934203D2E05CCD5C401BF8D0D4
:1003A00030BD2DE9FE4F804681EA0300C00F0C46A8
:1003B000009021F0004123F00045B8EB0200A94174
:1003C00005D24046214690461C460B46024623F085
:1003D0000040104347D0270DC7F30A00C3F30A516A
:1003E0000290401A019040286BDAC3F3130040F4E6
:1003F000801B0098924620B10023D2EB030A63EBE6
:100400000B0B01985946C0F14002504600F0B4F978
:1004100006460D4650465946019A00F0CCF910EBBD
:1004200008006141002487EA115284EAE7731A4305
:1004300040D0009A62B3019A012A4FEA075215DCB4
:10044000001B61EB02014FF0004202EA0752CDE9C6
:100450000042001C41F5801132462B4600F003FAA1
:1004600003B0BDE8F08F40462146F9E7001B61EB81
:100470000201001C41F5801300185B412018A2F511
:10048000001747EB030140EAD570B6196D4111E042
:100490006D084FEA360645EAC0754FEA0752001B61
:1004A00061EB0201001C41F5801149084FEA300060
:1004B0000019514132462B4603B0BDE8F04F00F021
:1004C000C3B90098012240000023D0EB020263EB85
:1004D000E073009821464FEAE074B8EB000061EB4E
:1004E0000401E9E783F000435BE781F0004158E74E
:1004F0002DE9FE4F81EA030404F0004421F000419D
:1005000000944FF0000B23F0004350EA01045ED04A
:1005100052EA03045BD0C3F30A54C1F30A552C44D6
:10052000A4F2F3340194A0FB0254C1F3130141F48B
:100530008011C3F3130343F4801301FB024400FB57
:10054000034E840A970A44EA815447EA8357A4FB7E
:10055000076802958D0A05FB07854FEA932C04FB7B
:100560000C542705029D4FEA065847EA1637B5EBAB
:1005700008056EEB070C870E920E47EA811742EAD8
:100580008312A7FB0201B6EB0B0164EB00042B0DF9
:1005900043EA0C335E1844EB1C50DA465146E7FB45
:1005A0000201C5F313044FEA0B3343EA14534FEA35
:1005B0000432019C43EA0603A4F10C040294009C5B
:1005C000CDE900B400F04FF903B0BDE8F08F002092
:1005D0000146F9E72DE9F04D81EA030404F0004BF0
:1005E00021F0004514464FF0000A23F0004150EA84
:1005F000050220D054EA01021DD0C5F30A57024675
:10060000C5F31303C1F31300C1F30A5640F4801578
:1006100043F48013A7EB0608101BD64608F2FD38FA
:1006200073EB050002D308F1010801E092185B4169
:10063000B8F1000F03DA00200146BDE8F08D00207C
:100640004FF48011064684460EE0171B73EB050736
:1006500005D3121B63EB050306434CEA010C490862
:100660004FEA300092185B4150EA0107EDD152EA9F
:10067000030012D082EA040083EA0501084305D092
:10068000101BAB4106D20122002306E000224FF0EE
:10069000004302E06FF0010253101AEB06004CEB2E
:1006A000085110EB0A0041EB0B01BDE8F04D00F0E2
:1006B000CBB80EB5C10F80EAE0700844CA0700212C
:1006C00040F233438DE80E000A460B4600F0CBF8AB
:1006D00003B000BD0EB540F2334102910021CDE9D7
:1006E00000110A460B4600F0BEF803B000BD00F052
:1006F000004230F000400AD0C10D01F56071C0F336
:10070000160042EA0151C208400711437047002019
:100710000146704701F0004330B421F0004150EA37
:10072000010206D00A0DA2F56072C1F31301002A7E
:1007300002DC30BC00207047440F44EAC104C10011
:10074000E01830BC00EBC25000F047B830B50B46A3
:10075000014600202022012409E021FA02F59D42F1
:1007600005D303FA02F5491B04FA02F52844151EC5
:10077000A2F10102F1DC30BD202A04DB203A00FAAC
:1007800002F1002070479140C2F1200320FA03F3E8
:10079000194390407047202A04DB203A21FA02F0E6
:1007A0000021704721FA02F3D040C2F120029140AB
:1007B000084319467047202A06DBCB17203A41FA36
:1007C00002F043EAE07306E041FA02F3D040C2F1DE
:1007D000200291400843194670470029A8BF70477E
:1007E000401C490008BF20F00100704710B4B0FA67
:1007F00080FC00FA0CF050EA010404BF10BC704702
:1008000049B1CCF1200421FA04F411FA0CF118BF1B
:10081000012121430843A3EB0C01CB1D4FEA0061EA
:100820004FEA102042BF002010BC704700EBC350BD
:1008300010440029A4BF10BC7047401C490008BFE9
:1008400020F0010010BC704710B5141E73F10004B5
:1008500008DA401C41F1000192185B411A4301D1B2
:1008600020F0010010BD2DE9F04D92469B4611B1DC
:10087000B1FA81F202E0B0FA80F220329046FFF73E
:100880007BFF04460F4640EA0A0041EA0B0153464B
:100890005A46084313D0114653EA010019D0C8F153
:1008A00040025046FFF777FF05460E465046594630
:1008B0004246FFF761FF084305D0012004E02046CF
:1008C0003946BDE8F08D0020054346EAE0762C432A
:1008D00037430A986305E40AA0EB08000022FD0AEA
:1008E00044EA47540A3002D500200146E9E70105F1
:1008F00010196941DDE9084500196941BDE8F04D6D
:10090000A2E7C1F30A52C1F3130140F2FF3341F4ED
:1009100080119A4202DA00200146704740F23343C8
:100920009A42A2F2334202DC5242FFF734BFFFF791
:1009300023BF000030B5041E71F1000404DB4FF04A
:100940000044404264EB0101141E73F1000405DB16
:100950001C464FF00043524263EB0403994208BF28
:10096000904230BD064C074D06E0E06840F00103C0
:1009700094E8070098471034AC42F6D3FFF708FC20
:10098000DC9D0008FC9D00082DE9F04D00231A466F
:100990001B1A8A4103DB00200146BDE8F08DC1F33C
:1009A0000A52C1F3130141F480154FF0000BD10737
:1009B00002D100186D41521E0027044640F2FF117B
:1009C000384601EB620A3E468046024600204FF45C
:1009D0008011FFF7E0FEC2197141BB1846EB010020
:1009E000B4EB030C75EB000C04D3E41A65EB0005C3
:1009F00017460E46241908F101006D41804634283F
:100A0000E3DDF91946EB0600091BA84103D24FF0BC
:100A1000FF32134601E0002213461BEB070046EBB2
:100A20000A51BDE8F04DFFF70FBF70B5C1F30A5290
:100A300001F000450024C1F3130140F2FF3341F4FB
:100A400080119A4201DA002070BD40F233439A428D
:100A5000A2F2334203DC5242FFF79DFE00E09040D9
:100A60002C43F1D0404270BD70B58C1810F8015B7A
:100A700015F0070301D110F8013B2A1106D110F837
:100A8000012B03E010F8016B01F8016B5B1EF9D13B
:100A90002B0705D40023521E0DD401F8013BFAE7C1
:100AA00010F8013BCB1A921C03E013F8015B01F82C
:100AB000015B521EF9D5A142D8D3002070BDFEE7DC
:100AC000014800F0AAB90000E8040020014800F045
:100AD000A4B90000E8040020014800F0E3BC0000D5
:100AE00094080020014800F0DDBC0000F40800205C
:100AF000014800F0D7BC0000D4070020014800F0F6
:100B0000D1BC000034080020014800F0CBBC00003C
:100B100054090020014800F0C5BC00001407002063
:100B2000014800F0BFBC0000B4090020014800F0FB
:100B3000B9BC00007407002001681823CAB2103A3B
:100B4000B2FBF3F2054B6FF30901032A9B5CC3650B
:100B500000D9091D8165084670470000289B0008E0
:100B600010B5014600208B698A6A4FF0C07453B1FA
:100B7000B3F5005F15D072B1012A0CD0022A0AD059
:100B8000032A09D104E01AB1012A06D0022A03D1AE
:100B9000C96AC90100D5012010BDC96AA142FAD0B5
:100BA00010BD002AF7D0012AF2D0022AF3D0032A7E
:100BB000F3D010BD30B50468256825F48025256084
:100BC000046863608368402B036803D09960006801
:100BD000C26030BD9A600068C16030BD704790F857
:100BE0002020012A09D090F82020022A05D0416A4D
:100BF00041F48021416201207047006842690A4344
:100C0000426100207047000010B590F82020012AB2
:100C100009D090F82020022A05D0416A41F48021B1
:100C20004162012010BD3A48D0F8002242F0010292
:100C3000C0F80022D0F8002222F47C52C0F8002232
:100C4000D0F800224B6A42EA0322C0F800220B7D52
:100C500001229A40D0F81C329343C0F81C32CB6971
:100C6000B3B9D0F80C329343C0F80C328C894B687E
:100C700064F31F434C6900EBC404C4F840320C8990
:100C80000B6864F31F434C6900EBC404C4F844329E
:100C9000CB69012B16D1D0F80C321343C0F80C32BB
:100CA0000C884B6864F31F434C6900EBC404C4F820
:100CB00040320C89CB6864F31F434C6900EBC404D9
:100CC000C4F844328B69002BD0F804320ED01343A1
:100CD000C0F804320B69002BD0F8143208D013434B
:100CE000C0F81432096A012904D008E09343EFE701
:100CF0009343F5E7D0F81C121143C0F81C12D0F84A
:100D0000001221F00101C0F80012002010BD000007
:100D1000006400400068416941F40F41416170473F
:100D200030B590F82040012C07D090F82040022CDC
:100D300003D0416A41F4802109E011B1012909D0B1
:100D40000CE00468E46807E0416A41F40011416284
:100D5000012030BD04682469A407F5D04FF4D8748D
:100D6000056804EB01142D5915F00405956005681C
:100D70002D5942D0ED08556005682C59C4F3400444
:100D8000D4604FF4DA74056804EB01142D5905F0B2
:100D90000F05156105682D59C5F30725956105688F
:100DA0002C59240C54614FF4DC72046802EB0112DC
:100DB000A4581C700468A458240A5C700468A458E1
:100DC000240C9C700468A258120EDA704FF4DE7284
:100DD000046802EB0112A4581C710468A458240A88
:100DE0005C710468A458240C9C710468A258120E0B
:100DF000DA7129B1012909D00DE06D0D1560BBE74D
:100E00000068C16841F02001C16004E00068016928
:100E100041F020010161002030BD2DE9F05F054661
:100E2000006800244669D0F804908768D0F80CB0B8
:100E3000D0F810A0D0F81880F10748D0F90714D0E6
:100E400001218160B80703D5284600F032FA0CE092
:100E5000780702D54FF4006407E0380702D54FF455
:100E6000805402E0284600F023FAF80516D52968D8
:100E70004FF480708860B80503D5284600F01BFA4F
:100E80000CE0780502D544F4005407E0380502D59B
:100E900044F4804402E0284600F00CFAF80316D52A
:100EA00029684FF480308860B80303D5284600F0E5
:100EB00004FA0CE0780302D544F4004407E0380358
:100EC00002D544F4803402E0284600F0F5F93007FA
:100ED00007D55FEACB6004D52968102044F400747C
:100EE000C86070074FF0080707D55FEA0B7004D59C
:100EF0002868C760284600F059F9B00706D5286869
:100F0000C068800702D0284600F051F9700607D566
:100F10005FEACA6004D52968102044F4806408613F
:100F2000B00607D55FEA0A7004D52868076128462D
:100F300000F03EF9F00606D528680069800702D067
:100F4000284600F037F9B00308D55FEAC96005D537
:100F5000296810204860284600F07CF9F00307D586
:100F60005FEA097004D528684760284600F0A6F9B2
:100F7000300446D55FEA497040D5F00504D55FEAF4
:100F8000C87001D044F00104B00504D55FEA887050
:100F900001D544F00204700504D55FEA487001D51C
:100FA00044F00404300529D518F0700F26D008F05D
:100FB0007000402815D006DC102809D020280AD05F
:100FC000302816D10AE050280ED0602811D10EE04A
:100FD00044F008040DE044F010040AE044F020045A
:100FE00007E044F0400404E044F0800401E044F4ED
:100FF00080742868816921F070018161296804206A
:101000004860002C05D0686A204368622846FFF7D4
:1010100081FEBDE8F09F70B5040003D094F8200075
:1010200010B104E0012070BD204600F081F8206876
:10103000016821F00201016000F09AFC05460526D6
:1010400004E000F095FC401B0A2811D82068406895
:101050008007F6D42068016841F00101016000F0CA
:1010600087FC05460BE000F083FC401B0A2806D9EC
:10107000606A40F40030606284F82060D2E7206843
:101080004068C007EFD0207E0128206801683DD06D
:1010900021F080010160607E01282068016838D05D
:1010A00021F040010160A07E01282068016833D052
:1010B00021F020010160E07E0128206801682ED027
:1010C00041F010010160207F01282068016829D0CB
:1010D00021F008010160607F01282068016824D0A8
:1010E00021F004010160D4E902010843D4E90412AB
:1010F000114308436168491E08432168C861002004
:101100006062012084F82000002070BD41F0800161
:10111000C0E741F04001C5E741F02001CAE721F0F6
:101120001001CFE741F00801D4E741F00401D9E70D
:1011300000B500681A4987B088422FD119480021AC
:10114000026842F080620260026802F080620592EA
:10115000026842F000720260006800F000700590C2
:101160004FF4405000900220CDE90101032003908C
:101170000920049069460C4800F01CFB0022052160
:101180003F2000F08BFC3F2000F07CFC002205217A
:10119000412000F083FC412000F074FC07B000BD4A
:1011A0000068004040380240000402407047704729
:1011B0007047000010B588B01E4B6A460121FFF74A
:1011C000AFFD18B18E211CA002F079FF0098A0F5A8
:1011D000007101390AD0A0F50071023906D0A0F5DE
:1011E0000071033902D0B0F5017F1BD100F0C0FBC4
:1011F000104C0C3CA168401A606000F0B9FBA06084
:1012000000981249401EC0B2207001EB8010C169E5
:101210004A1C32290749C26102D805F02BFB01E0C4
:1012200005F080FA0A480068416941F00201416115
:1012300008B010BD44000020305F6273705C6361D1
:101240006E5C6273705F63616E2E63006C010020E0
:10125000E80400207047000070B5044690F82000B4
:10126000012804D0606A40F40020606218E0022087
:1012700084F820002068016821F00101016000F07D
:1012800077FB05460EE000BF00F072FB401B0A280A
:1012900008D9606A40F400306062052084F82000BC
:1012A000012070BD20684068C007EDD1606270BD4C
:1012B000704770477047704770477047704770B508
:1012C0004379012B1AD00126467102230371056868
:1012D0002C6840F6FE7393409C43D1E900310B43E8
:1012E000934023432B6001680B68C0249440A343C0
:1012F0000B60067100214171084670BD022070BD6F
:1013000070B5040003D02079002510B105E001205C
:1013100070BD6571204600F007F80220207125613C
:1013200001202071002070BD00B500680C4987B015
:10133000884212D10B480021026842F0005202603C
:10134000006800F000500590302000900320CDE9A7
:1013500001016946044800F02DFA07B000BD000005
:1013600000740040403802400000024018B5046894
:1013700000940068104421B11430009003600020F4
:1013800018BD0830F9E730B54279012A16D001229C
:1013900042710223037103681D6802FA01F42543B8
:1013A0001D60002901680B680AD00C6803F48023D3
:1013B00004F46014B3F5802F0FD015E0022030BD87
:1013C0000C6803F0040304F03804042B0CD1382C0F
:1013D0000AD14B6843F0010305E0B4F5601F03D167
:1013E0004B6843F002034B600271002141710846D3
:1013F00030BD2DE9F0410446876D00F0B9FA06468C
:1014000094F835000025022806D08020606584F815
:1014100034500120BDE8F0812068016821F01601F8
:1014200001602068416921F080014161206C08B9A8
:10143000A06C20B12068016821F0080101602068DB
:10144000016821F0010101600BE000F091FA801BBE
:10145000052806D92020606504F8345F03206070F9
:10146000D8E720680068C007EFD194F85C103F20EF
:101470008840B86004F8345F012060700020C9E73C
:1014800090F83510022903D0802141650120704772
:10149000052180F835100068016821F00101016024
:1014A000002070472DE9F84304464FF00009CDF8BD
:1014B000009063484FF41651A56D0068B0FBF1F73A
:1014C0002E6894F85C10082000FA01F131420FD028
:1014D00021680A6852070BD50A6822F004020A60E4
:1014E00094F85C108840A860606D40F00100606571
:1014F00094F85C104FF0010808FA01F0304208D06F
:1015000021684969090604D5A860606D40F00200B1
:10151000606594F85C1004208840304208D021684F
:101520000968890704D5A860606D40F00400606513
:1015300094F85C1010208840304218D02168096867
:10154000090714D5A86020680168490304D500681C
:10155000000308D5A16C07E00168C90503D4016840
:1015600021F008010160216C09B12046884794F8F8
:101570005C1020208840304231D021680968C906BB
:101580002DD5A86094F8350005282068016806D09C
:10159000490347D5006800031DD4616C1CE021F0AD
:1015A000160101602068416921F080014161206CD1
:1015B00008B9A06C20B12068016821F00801016021
:1015C00094F85C103F208840A86084F8349084F838
:1015D0003580216D1FE0E16B09B120468847606DC1
:1015E00000282BD0606DC00714D0052084F835008A
:1015F0002068016821F0010101600098401C009002
:10160000B84203D820680068C007F6D184F8349047
:1016100084F83580E16C002910D001B02046BDE887
:10162000F04308470168C905D5D4016821F01001CD
:10163000016084F8349084F83580CCE7BDE8F88305
:10164000F00000202DE9F041044600F091F9064633
:101650005CB1002584F83450022084F835002068FD
:10166000016821F0010101600DE00120BDE8F08179
:1016700000F07EF9801B052805D920206065032035
:1016800084F83500F2E720680068C007F0D12268CE
:10169000116820480140D4E901031843D4E9033616
:1016A0003343184363691843A3691843E369184334
:1016B000236A18430843616A042903D1D4E90B1350
:1016C00019430843106020684069666A20F00701EA
:1016D00030460E43012704280CD1A06A0643E06A75
:1016E00040B12046FFF73CFA20B14020606584F805
:1016F0003570BAE7206846612046FFF71DFA94F876
:101700005C203F2191408160656584F83570002040
:10171000ACE700003F8010F02DE9F0410446866DF3
:1017200090F83400002501280DD0012084F8340001
:1017300094F835700020012F07D084F8340002257A
:101740002846BDE8F0810220FBE7022784F83570C7
:1017500060652046FFF72EFA94F85C103F20884021
:10176000B0602068016841F016010160206841699D
:1017700041F080014161206C20B12068016841F096
:10178000080101602068016841F001010160D7E7AC
:1017900070B5044600F0ECF80546601C02D0044821
:1017A0000078044400F0E4F8401BA042FAD370BD76
:1017B000E40000202DE9F84FDFF87CB100224FF063
:1017C00001084FF0030A4FF00F090BF1040E00BFA0
:1017D0000B6808FA02F42340A3426ED14D68022D33
:1017E00001D0122D0ED1D50800EB850CDCF820506D
:1017F0005607F70E09FA07F6B5430E69BE402E43A9
:10180000CCF82060066855000F790AFA05FC07F04D
:10181000030726EA0C06AF40374307604E68012EE7
:1018200005D0022E03D0112E01D0122E0ED18668C3
:10183000CF6826EA0C06AF40374387604668A64368
:101840000C79C4F30014944034434460C6688C6837
:1018500026EA0C06AC403443C4604C68E40065D50D
:10186000364C256845F480452560246822F0030540
:1018700004F480440094324C2E19D6F80848950799
:101880002F0F09FA07F5AC432E4DA84201D10025D0
:1018900024E02D4DA84201D101251FE02B4DA84287
:1018A00001D102251AE02A4DA84201D1032515E0F5
:1018B000284DA84202D1042510E037E0264DA84269
:1018C00001D105250AE0254DA84201D1062505E0F4
:1018D000234DA84201D1072500E00825BD4025433E
:1018E000C6F80858DBF800405D464E689C43F60396
:1018F00000D51C432C60DEF8004075464E689C43C2
:10190000B60300D51C432C600B4D08352C684E687F
:101910009C43F60200D51C432C60074D0C352C6807
:101920004E689C43B60200D51C432C60521C102A02
:10193000FFF44EAFBDE8F88F003C01404438024050
:101940000030014000000240000402400008024054
:10195000000C024000100240001402400018024037
:10196000001C02400AB1816170470904FBE70000D6
:101970000148806870470000E40000200248816848
:101980000278114481607047E40000200B4810B5D4
:10199000016841F400710160016841F480610160F7
:1019A000016841F480710160032000F097F80F2076
:1019B00000F006F800F024F8002010BD003C0240C2
:1019C00070B50D4D04464FF47A712878B1FBF0F0F4
:1019D0000A490968B1FBF0F000F01AFB48B9102C75
:1019E00007D200222146501E00F058F800206C60FB
:1019F00070BD012070BD0000E4000020F000002058
:101A00001F4808B5016841F480410160006800F496
:101A1000804000901A48001F016841F08051016029
:101A2000006800F080500090032000F057F800227A
:101A300011466FF00B0000F031F8002211466FF0F4
:101A40000A0000F02BF8002211466FF0090000F0A8
:101A500025F800221146501F00F020F80022114600
:101A6000101F00F01BF800220F21901E00F016F846
:101A700000220F21BDE80840501E00F00FB8000002
:101A80004438024000F01F020121914040098000CB
:101A900000F1E020C0F8001170470000F0B40E4BD8
:101AA0001B680C46C3F30223C3F10705042D00D9BC
:101AB0000425191D072901D2002300E0DB1E0126A1
:101AC00006FA05F1491E214099409E40761E1640B7
:101AD0003143F0BC01F07CBE0CED00E0064900F0A3
:101AE000070208684FF6FF03184040EA0220034A45
:101AF00010430860704700000CED00E00000FA059C
:101B00002DE9F0470E46050065D0DFF81481D8F8BE
:101B10000000F7B200F00F00B04207D288F8007062
:101B2000D8F8000000F00F00B04254D128683D4CB6
:101B3000810712D5400703D5206840F4E0502060AB
:101B40002878000703D5206840F4604020602068B2
:101B5000A96820F0F000084320602878C0072DD045
:101B6000304968680839012812D0022813D00328A8
:101B700011D00968890700292DDA216821F00301B5
:101B800001432160FFF7F4FE814641F2883A0EE0FE
:101B900009688903EFE709688901ECE7FFF7E8FEC8
:101BA000A0EB0901514502D90320BDE8F087206868
:101BB000696800F00C00B0EB810FEFD1D8F800108D
:101BC000404601F00F01B14207D90770006800F0EC
:101BD0000F00B04201D00120E7E72878400705D583
:101BE0002068E96820F4E050084320602878000766
:101BF00006D52068296920F4604040EAC1002060D1
:101C000000F03CF82168084AC1F30311515CC84058
:101C1000064908600F20FFF7D3FE0020C5E700004B
:101C2000003C024008380240309B0008F0000020D1
:101C30000148006870470000F00000200448054992
:101C400000680968044AC1F38221515CC8407047AA
:101C5000F000002008380240409B00080448054975
:101C600000680968044AC1F34231515CC8407047BA
:101C7000F000002008380240409B0008154810B5CD
:101C8000006810F00C02144813D04110042A0FD041
:101C9000082A0ED10F4C241F2268236802F03F024D
:101CA0005B0207D52068C0F38810A0FB010106E0A5
:101CB000084610BD2168C1F38811A1FB0001002373
:101CC000FEF7DCFA2168C1F30141491C4900B0FB71
:101CD000F1F010BD083802400024F4002DE9F84F5F
:101CE000050076D02878DFF8F8B2BE4CC00749D09E
:101CF000DBF800105846C1F38101012908D00068C3
:101D0000C0F3810002280AD1201D0068400206D5D8
:101D10002068800336D568680028E2D032E0686821
:101D2000B0F5803F10D0B0F5A02F206810D020F47F
:101D300080302060206820F4802020606868A0B196
:101D4000FFF716FE06460CE0206840F48030F4E70A
:101D500040F480202060F7E7FFF70AFE801B64282C
:101D600073D820688003F7D50CE0FFF701FE064624
:101D700005E000BFFFF7FCFD801B6428F0D8206859
:101D80008003F7D42878DFF8608280074FF00009DD
:101D90003ED5DBF80010584611F00C0F09D0006852
:101DA000C0F3810002280BD18D48001F006840025B
:101DB00006D42068800715D5E868012809D111E00C
:101DC000E868B8B10120C8F80000FFF7D1FD064669
:101DD00005E002E1FFF7CCFD801B0228C0D8206897
:101DE0008007F7D52068296920F0F80040EAC10093
:101DF00020600DE0C8F80090FFF7BAFD064604E049
:101E0000FFF7B6FD801B02281FD820688007F7D493
:101E10002878000722D5724E744869696C3671B112
:101E200001210160FFF7A4FD074604E0FFF7A0FDD4
:101E3000C01B022809D830688007F7D50EE0C0F82B
:101E40000090FFF795FD074605E083E0FFF790FD62
:101E5000C01B02287ED830688007F7D42878400756
:101E600068D5DFF87CA100270AF1380ADAF800000B
:101E7000C0000BD4DAF8001041F08051CAF800100D
:101E8000DAF80000012700F080500090584E3068CA
:101E9000C00510D4306840F480703060FFF768FDF2
:101EA000009005E0FFF764FD0099401A022851D820
:101EB0003068C005F6D54A4EA868683601280FD0AC
:101EC0000528306810D020F001003060306820F024
:101ED00004003060A868B8B1FFF74AFD00900FE039
:101EE000306840F00100F4E740F004003060F7E7AC
:101EF000FFF73EFD0099411A41F28830814264D8D3
:101F000030688007F4D50EE0FFF732FD009007E05F
:101F1000FFF72EFD0099411A41F28830814254D8D2
:101F200030688007F4D42FB1DAF8001021F0805126
:101F3000CAF80010A869C0B3DBF80010C1F3810132
:101F400002294AD00228484607D0C8F86000FFF7A7
:101F50000FFD00E039E005463AE04746C8F860006A
:101F6000FFF706FD064604E0FFF702FD801B02288E
:101F70002BD820688001F7D4D5E907010843A96A66
:101F80001C4A490802EB01416A6A41EA821108438E
:101F900095F82C1040EA01611148001F01600120F2
:101FA0003866FFF7E5FC054605E014E0FFF7E0FCC6
:101FB000401B022809D820688001F7D50BE000BF3C
:101FC000FFF7D6FC401B022802D90320BDE8F88F9A
:101FD00020688001F4D40020F8E70120F6E7000033
:101FE000083802400038024000004742800E474255
:101FF000007000400000FFFF4FF0E0210428086956
:1020000003D020F004000861704740F00400FAE7B4
:1020100010B5401EB0F1807F01D3012010BD4FF0FC
:10202000E02460610F21601701F0D2FB0020A06165
:1020300007202061002010BD7047704730B590F830
:102040003820012A20D0012280F83820022380F88D
:10205000393003685C6824F070045C6003685C6875
:102060000D682C435C6003689C6824F080049C60CD
:1020700003689C6849680C439C6080F83920002103
:1020800080F83810084630BD022030BD10B504007D
:1020900003D094F8390010B107E0012010BD0020F2
:1020A00084F83800204600F00DF8022084F839004A
:1020B000211D206801F05EFC012084F83900002019
:1020C00010BD000008B500680649884208D10648DE
:1020D000016841F080010160006800F0800000901C
:1020E00008BD0000001C0040403802402DE9F041CE
:1020F0000D46040003D094F8390018B108E001201F
:10210000BDE8F081002084F83800204600F03AF85D
:10211000022084F839002068816821F0070181607D
:10212000211D206801F026FC226890689169166ADA
:102130002B68AF69034340F20330814341EA072132
:10214000A868EF6908434FF6FC418843E96840EA14
:102150000720014328692F6A000140EA073008433D
:1021600069686D6926F0AA0646EA05152943936059
:102170002268906120680162012084F83900002003
:10218000BEE7000010B5204C036800211F48022262
:1021900086B0A34218D1036843F0020303600068CD
:1021A00000F002000590C0200090CDE90121CDE9AA
:1021B000031269461648FFF7FDFA002205211D208B
:1021C000FFF76CFC1D201BE0124CA3421AD10368E0
:1021D00043F004030360006800F0040005904FF42E
:1021E00040500090CDE90121CDE9031269460A482B
:1021F000FFF7E0FA002205211E20FFF74FFC1E200A
:10220000FFF740FC06B010BD00040040403802401B
:102210000000024000080040000C024010B50446D7
:10222000006889B104294FF0010216D0002101F0A5
:1022300001FC01220421206801F0FCFB2068C16838
:1022400041F00201C1600BE00122002101F0F2FB2C
:102250002068C16841F0020106E0042101F0EAFBB8
:102260002068C16841F00401C1602068016841F044
:1022700001010160002010BD224A016891421ED177
:102280002149037E91F82420012B0AD10B46012A13
:102290001B6902D0022A02D011E05B1C00E05B1E29
:1022A0000B61037E022B0AD1012A02D0022A03D03D
:1022B00005E00A69521C01E00A69521E0A61134ACC
:1022C0000168914217D11249037E91F82420012B15
:1022D00007D10B46012A1B690ED0022A0BD15B1EC7
:1022E0000B61007E022806D1012A07D0022A02D102
:1022F0000869401E086170475B1CF1E70869401CD3
:10230000F8E7000000040040DC0200200008004064
:10231000A800002070B50446006801694FF0000570
:10232000C943890715D4C168C943890711D4E91E77
:10233000016101202076206880698007204602D054
:10234000FFF79AFF04E000F0C3F8204600F062F9BE
:10235000257620680169C943490717D4C168C94374
:10236000490713D46FF00401016102202076206830
:10237000806910F4407F204602D0FFF77DFF04E023
:1023800000F0A6F8204600F045F92576206801699E
:10239000C943090716D4C168C943090712D46FF0AD
:1023A00008010161042020762068C069800720466A
:1023B00002D0FFF761FF04E000F08AF8204600F049
:1023C00029F9257620680169C943C90617D4C1686F
:1023D000C943C90613D46FF01001016108202076AB
:1023E0002068C06910F4407F204602D0FFF744FF08
:1023F00004E000F06DF8204600F00CF92576206826
:102400000169C943C90708D1C168C943C90704D1D3
:10241000891E0161204600F035F920680169C94331
:10242000090609D4C168C943090605D46FF08001C3
:1024300001612046FFF700FE20680169C943490693
:1024400009D4C168C943490605D46FF04001016150
:10245000204600F018F920680169C94389060BD4A9
:10246000C168C943890607D46FF020010161204685
:10247000BDE87040FFF7E1BD70BD000000B5104B36
:1024800002680021022085B09A4209D16022CDE97C
:102490000020CDE9020103200490694609480BE0C1
:1024A000094B9A420AD192150092CDE90101092007
:1024B000CDE9031069460548FFF77CF905B000BD7A
:1024C0000040014000100240001C00400014024087
:1024D000704770B5044690F838000D4601280DD0BD
:1024E000012684F83860022084F8390042B1042AB9
:1024F00018D0082A2AD00C2A4DD139E0022070BD0C
:10250000206801F0A3FA2068816941F00801816127
:102510002068816921F004018161206881692A694C
:10252000114311E0206801F0BDFA2068816941F48F
:10253000006181612068816921F480618161206886
:1025400081692A6941EA0221816124E0206801F061
:10255000DBFA2068C16941F00801C1612068C169E6
:1025600021F00401C1612068C1692A69114311E0A9
:10257000206801F0F9FA2068C16941F40061C16185
:102580002068C16921F48061C1612068C1692A693C
:1025900041EA0221C16184F83960002084F83800E2
:1025A00070BD10B5040003D094F8390010B107E0F5
:1025B000012010BD002084F83800204600F00CF8FF
:1025C000022084F83900211D206801F0D3F9012090
:1025D00084F83900002010BD08B500680B49884216
:1025E00012D10B48016841F480310160006800227B
:1025F00000F48030009005211820FFF74FFABDE865
:1026000008401820FFF73EBA08BD00000040014016
:10261000443802407047000010B50268044631B1EA
:10262000042908D0082920D00C2908D121E0D0683D
:1026300040F0020002E0D06840F00400D0600122C7
:10264000206801F0F7F90D492068884202D00C4952
:10265000884203D1416C41F4004141642068016823
:1026600041F001010160002010BDD06840F0080079
:10267000E4E7D06840F01000E0E70000000001400F
:10268000000401407047704710B504460068416976
:1026900094F83920C1F3C011212A0BD151B14169FD
:1026A00021F080014161206B08B1FEF7A2FE2046B7
:1026B00001F0FCFA2068416994F83A20C1F38011D6
:1026C000222A0BD151B1416921F040014161606B77
:1026D00008B1FEF78EFE204601F0DAFA002010BDA8
:1026E0007047000070B5026804461068D1685369ED
:1026F00010F00F0F50D003F0010501F49076354330
:102700005DD0C20705D0CA0503D5E26B42F00102D5
:10271000E263420705D5DA0703D0E26B42F002021A
:10272000E263820705D5DA0703D0E26B42F00402C8
:10273000E263020705D5DA0703D0E26B42F0080234
:10274000E263E26B002A33D0800604D5880602D506
:10275000204601F0B4FA20684069E16BC0F38010B4
:10276000090700D428B3204601F092FA2068416995
:1027700049061AD5416921F040014161606BA0B161
:102780001B490165606BFEF77BFE002810D0606B73
:10279000016DBDE870400847830610D58B060ED545
:1027A0002046BDE8704001F08ABA2046FFF798FF46
:1027B00070BD2046FFF794FF0020E06370BD030664
:1027C00006D50B0604D52046BDE8704001F014BCC8
:1027D0004006F3D54806F1D5D168204621F04001E6
:1027E000D160202184F8391000F084FA70BD000017
:1027F000B93B000870B5040004D094F839000025F6
:1028000010B106E0012070BD84F83850204600F079
:1028100023F8242084F839002068C16821F400518D
:10282000C160204601F092FA2068016921F49041CC
:1028300001612068416921F02A0141612068C16875
:1028400041F40051C160E563202084F8390084F828
:102850003A00002070BD00002DE9F04F0446D0F88A
:1028600000C0CC4B0220DFF830B301210322DFF897
:102870002CE340270025460287B04FF0070A4FF0AF
:1028800000699C4558D1DBF800C0A8464CF0100CFC
:10289000CBF800C0DBF800300DF1040C03F010039E
:1028A0000593530200938CE8070469467046FEF7CF
:1028B00081FFDFF8F0A2BA495046CAF80010C0E91B
:1028C0000195C0E90356CAF81450CAF81850CAF85E
:1028D0001C50CAF82050CAF82450FEF7B3FE18B1B5
:1028E000BB21B1A001F0EBFBAE4DC4F834A0AC4865
:1028F0006035CAF838407830AF60C5E90009C5E9ED
:102900000386C5F81480C5F81880C5F81C80C5F882
:1029100020802846C5F82480FEF794FE18B1CD210A
:10292000A1A001F0CCFB2563002205212520AC638A
:10293000FFF7B4F825205EE0974BDFF87C821B1F81
:10294000C4455DD1D3F800C0A8464CF4003CC3F8A0
:1029500000C01B680DF1040B03F4003305930C2336
:1029600000938BE8070469467046FEF723FFDFF803
:1029700034A292490AF1C00A5046CAF80010C0E9D0
:102980000195C0E90356CAF81450CAF81850CAF89D
:102990001C50CAF82050CAF82450FEF753FE18B154
:1029A000FA2181A001F08BFB854DC4F834A0834847
:1029B000CAF838401830AF60C5E90009C5E9038698
:1029C000C5F81480C5F81880C5F81C80C5F82080AB
:1029D0002846C5F82480FEF735FE20B14FF48671F5
:1029E00071A001F06CFB2563002205212620AC6359
:1029F000FFF754F82620FFF745F807B0BDE8F08F41
:102A0000DFF8C081C44561D1D3F800C04CF4802CFC
:102A1000C3F800C01B680DF1040803F4802305937C
:102A20004FF44063009388E8070469466648FEF760
:102A3000C1FEDFF88C81614908F1600860394046C9
:102A4000C8F80010C0E90195C0E90356C8F8145051
:102A5000C8F81850C8F81C50C8F82050C8F82450BE
:102A6000FEF7F0FD20B140F239114FA001F027FB35
:102A7000C4F83480C8F83840DFF844814F4908F181
:102A8000C0084046C8F80870C0E90356C8F814509A
:102A9000C8F81850C8F81C503039C8F82050C8E998
:102AA0000019C8F82450FEF7CDFD20B140F24B11BB
:102AB0003DA001F004FBC4F830800022052127204E
:102AC000C8F83840FEF7EAFF272094E73F4B9C45C3
:102AD00093D1DBF800C0A9464CF0200CCBF800C025
:102AE000DBF800300DF1040803F020030593C02348
:102AF000009388E807000820049069463448FEF7F0
:102B000059FE2749DFF8CC80183940464FF0206A3B
:102B1000C8F80010C0E901A5C0E90356C8F8145070
:102B2000C8F81850C8F81C50C8F82050C8F82450ED
:102B3000FEF788FD20B14FF4BC711BA001F0BFFA75
:102B4000244DC4F8348016486035C8F838406030E9
:102B5000AF60C5E9000AC5E90396C5F81490C5F849
:102B60001890C5F81C90C5F820902846C5F8249008
:102B7000FEF768FD20B14FF4C5710BA001F09FFA7C
:102B80002563002205214720AC63FEF787FF47201D
:102B900031E70000001001404438024000000240CC
:102BA00040640240140700202E2E2F5372632F75AD
:102BB000736172742E63000000440040886002401C
:102BC0003408002000480040000402400014014086
:102BD0000008024054090020F8B5044690F83A0075
:102BE00020283CD1C1B3BAB394F83800012836D0BC
:102BF000012084F83800A162A2850025E563222027
:102C000084F83A00636B1748D863636B16481864FE
:102C1000636B1648D864606B134605650846666B9F
:102C2000216802463046091DFEF776FD20680168DE
:102C30004168009184F83850C16841F48071C160E6
:102C40002068416941F0010141612068416941F01A
:102C5000400141610020F8BDFFE70120FBE70220B1
:102C6000F9E70000133C00084F3C0008C93B00088E
:102C70007047704770B5044690F83900202830D16D
:102C800069B362B394F8380001282AD0012084F88F
:102C900038002162A284E2840025E563212084F8C3
:102CA0003900236B1048D863236B10481864236BDA
:102CB0000F48D864206B134605652668206B321DCB
:102CC000FEF72AFD21686FF04000086084F8385054
:102CD0002068416941F080014161002070BD012000
:102CE00070BD022070BD0000593C0008873C000800
:102CF000C93B000870477047FEE700000D4A00B569
:102D00000023C2F8A0320C48016821F44021016080
:102D1000016841F480210160C2F8A432022002F56A
:102D2000287203F0A1F801201060022003F09CF843
:102D3000136000BD00804042000402400E4810B500
:102D4000016886B041F00201016000684FF44074F0
:102D500000F0020005900120CDE900400290022021
:102D6000039069460548FEF725FD012221460448E7
:102D7000FEF7F8FD06B010BD3038024000140240E6
:102D8000000402400D4A10B50023C2F8A0320C48DE
:102D9000016821F440210160016841F48021016053
:102DA0000124C2F8A442022002F5287203F05CF864
:102DB0001460022003F058F8136010BD00804042F8
:102DC00000040240F0B5054614480024016821F4CF
:102DD0004021016001680160114B2246264601270F
:102DE000C3F8A062022003F03FF8C3F8A0726006A7
:102DF000040ED3F8240208B1641CE4B2012003F0ED
:102E000033F8521CD2B2082AEAD31DB1FFF776FF7D
:102E10002046F0BDFFF7B6FFFAE7000000040240CD
:102E20000080404270B504461248016821F44021F8
:102E30000160016841F4802101600F4A0025C2F859
:102E4000A0522B460126E009C2F8A4026006040E37
:102E5000022003F009F8C2F8A062022003F004F88F
:102E6000C2F8A052022002F0FFFF5B1CDBB2082B6D
:102E7000E9D370BD00040240008040420D4800B517
:102E8000016821F440210160016841F48021016062
:102E9000094A0120C2F8A402C2F8A002042002F5E7
:102EA000287202F0E1FF00235360042002F0DCFFEF
:102EB000136000BD00040240008040420E4800B58F
:102EC000016821F440210160016841F48021016022
:102ED0000A4A0020C2F8A002C2F8A402042002F5A7
:102EE000287202F0C1FF01201060506004205DF8DC
:102EF00004EB02F0B9BF0000000402400080404231
:102F0000124810B50168002221F4402101600168D7
:102F100001600F4B0124C3F8A442204602F0A4FF35
:102F2000C3F8A042012002F09FFF07E0521CD2B27A
:102F3000FA2A03D9FFF7C2FF012010BDD3F82402FB
:102F40000028F3D1C3F8A00210BD00000004024025
:102F5000008040427CB514460D4606466B4606226C
:102F60003B21682000F082F800280BD1BDF800104A
:102F700049BA3180BDF8021049BA2980BDF8041061
:102F800049BA21807CBD7CB514460D4606466B4689
:102F900006224321682000F069F800280BD1BDF813
:102FA000001049BA3180BDF8021049BA2980BDF835
:102FB000041049BA21807CBD10B5FFF7BFFE802107
:102FC0006B2000F0C2F8642002F04BFF00216B2060
:102FD00000F0BBF8032000F084F8002000F07CF83B
:102FE0004FF47A74204600F099F80021382000F060
:102FF000ACF800216A2000F0A8F80021232000F09E
:10300000A4F88021372000F0A0F8752000F011F816
:10301000682801D0012010BD02216B2000F095F836
:1030200000216C2000F091F8204600F077F8002095
:1030300010BD10B50446FFF721FFD020FFF7F2FEC8
:10304000FFF75EFF2046FFF7EDFEFFF759FFFFF7A2
:1030500015FFD120FFF7E6FEFFF752FF0020FFF734
:10306000B1FE0446FFF72AFF204610BD2DE9F041CE
:103070001D4614460F460646FFF700FF7006000E79
:10308000FFF7D0FEFFF73CFF20B1FFF717FF01204D
:10309000BDE8F0813846FFF7C5FEFFF731FFFFF7C7
:1030A000EDFE012000EB4600C0B2FFF7BBFEFFF7CC
:1030B00027FF09E0012C0DD05FF00100FFF782FE31
:1030C000641E05F8010BE4B2002CF3D1FFF7F6FE05
:1030D0000020DDE70020F1E7C006010E1C2000F013
:1030E00034B8C006010E1B2000F02FB8BC2801D355
:1030F000012110E0622801D302210CE02A2801D32B
:10310000032108E0142801D3042104E00A2801D394
:10311000052100E006211A2000F017B810B504467A
:103120004FF47A70844201D9044602E0042C00D2A4
:103130000424B0FBF4F0401EC1B2192000F005F8E1
:103140006008BDE81040FFF7D1BF70B50C460546DA
:10315000FFF794FED020FFF765FEFFF7D1FE50B9D0
:103160002846FFF75FFEFFF7CBFE2046FFF75AFE2B
:10317000FFF7C6FE18B1FFF7A1FE012070BDFFF7F3
:103180009DFE002070BD2DE9F0411E4615460F46FC
:103190000446FFF773FE6006000EFFF743FEFFF7DD
:1031A000AFFE60B93846FFF73DFEFFF7A9FE0024E9
:1031B0000CE0305DFFF736FEFFF7A2FE20B1FFF70F
:1031C0007DFE0120BDE8F081641CE4B2AC42F0D386
:1031D000FFF774FE0020F5E7114810B50F490160B4
:1031E0000321416000214FF400228160C0E90312F5
:1031F0004FF440124261017641768176C1760177C3
:1032000001214177FDF707FF002805D0BDE81040F8
:103210004F2104A000F053BF10BD00000068004023
:10322000E80400202E2E2F5372632F63616E2E63ED
:10323000000000001CB51349114808600846FEF75D
:103240005FF818B1472110A000F039FF002000906E
:103250000246019069460B48FEF731F818B150213B
:1032600009A000F02CFF102269460648FEF727F857
:10327000002803D0572104A000F021FF1CBD00004E
:1032800000740040100500202E2E2F5372632F640F
:1032900061632E6300000000294808B5016841F40D
:1032A00000110160016801F400110091016841F40E
:1032B000800101600068002200F480000090052178
:1032C0000C20FEF7EBFB0C20FEF7DCFB00220521B7
:1032D0000E20FEF7E3FB0E20FEF7D4FB00220521B3
:1032E0001020FEF7DBFB1020FEF7CCFB00220521AF
:1032F0001120FEF7D3FB1120FEF7C4FB00220521AD
:103300003920FEF7CBFB3920FEF7BCFB002205215C
:103310003A20FEF7C3FB3A20FEF7B4FB002205215A
:103320004520FEF7BBFB4520FEF7ACFB0022052144
:103330004620FEF7B3FBBDE808404620FEF7A2BBDF
:103340003038024010B590B0142211496846FCF79D
:10335000F7FF0021684604F063FD0E4C0C4914226F
:10336000A060143105A8FCF7EBFF002105A804F0CC
:1033700057FD07496060142228310AA8FCF7E0FFD6
:1033800000210AA804F04CFD206010B010BD000020
:10339000EC9A0008D80000202DE9F047444886B098
:1033A0000024016841F010010160016801F0100182
:1033B0000591016841F020010160016801F02001E0
:1033C0000591016841F080010160016801F0800110
:1033D0000591016841F004010160016801F00401F8
:1033E0000591016841F001010160016801F00101EE
:1033F0000591016841F002010160016801F00201DC
:103400000591016841F0080101600068DFF8A480BF
:1034100000F008004FF4C066059000223146404697
:10342000FEF7A0FADFF8909000220F214846FEF741
:1034300099FADFF888A07710002239465046FEF747
:1034400091FA1C2001258DE8310069461C48FEF7E1
:10345000B1F90096CDE90154694640460394FEF760
:10346000A9F90F200090CDE901546946484603941C
:10347000FEF7A0F9CDE900540226694611480296EC
:10348000FEF798F90820CDE90006029669465046F5
:10349000CDE90345FEF78EF9CDE90075CDE902547B
:1034A00069465046FEF786F906B0BDE8F087000091
:1034B000303802400014024000080240000402407C
:1034C000001002400000024010B5174888B01549AE
:1034D0000024C0E900148460C4600461FEF7D6FDD6
:1034E00018B1B02111A000F0EAFD0F48FFF759F81C
:1034F00018B1B5210DA000F0E2FD6020CDE9000477
:1035000002940022694608480494FEF7E2FF18B1CD
:10351000BE2106A000F0D3FD0348FEF7AFFF08B0C0
:1035200010BD0000001C0040D80500202E2E2F5397
:1035300072632F74696D2E630000000010B5174888
:103540008CB015490024C0E900144FF6FE71C0E9A3
:10355000024104610320CDE900040120CDE9020409
:103560000494CDE90540079469460C480894FEF799
:10357000BDFD18B158210AA000F0A1FD099409A9C8
:1035800006480A94FEF75AFD002803D05F2104A0E4
:1035900000F095FD0CB010BD000400402405002093
:1035A0002E2E2F5372632F74696D2E63000000005E
:1035B00010B517488CB015490024C0E900144EF628
:1035C0005F21C0E9024104610320CDE9000401202C
:1035D000CDE902040494CDE90540079469460C48FE
:1035E0000894FEF783FD18B179210AA000F067FD69
:1035F000099409A906480A94FEF720FD002803D083
:10360000802104A000F05BFD0CB010BD000800405C
:10361000600500202E2E2F5372632F74696D2E6368
:103620000000000010B5184888B016490024C0E911
:1036300000148460C4600461FEF7B3FF18B19021E8
:1036400012A000F03CFD6020CDE9000402940022AD
:1036500069460D480494FEF73CFF18B199210BA070
:1036600000F02DFD042269460748FEF732FF18B12D
:103670009E2106A000F023FD0348FEF7FFFE08B0E0
:1036800010BD0000004001409C0500202E2E2F534D
:1036900072632F74696D2E63000000000D4810B531
:1036A0000B4901604FF4E1314160002181600C223F
:1036B000C160C0E904128161C161FFF79BF8002875
:1036C00005D0BDE81040582103A000F0F8BC10BDA3
:1036D00000100140140600202E2E2F5372632F7508
:1036E000736172742E6300000D4810B50B490160C0
:1036F0004FF4E1314160002181600C22C160C0E9DA
:1037000004128161C161FFF775F8002805D0BDE89A
:1037100010406B2103A000F0D2BC10BD004400405B
:10372000540600202E2E2F5372632F75736172740E
:103730002E6300000D4810B50B4901604FF4E131D4
:103740004160002181600C22C160C0E904128161E6
:10375000C161FFF74FF8002805D0BDE810407E2179
:1037600003A000F0ACBC10BD00480040940600204F
:103770002E2E2F5372632F75736172742E630000A7
:103780000D4810B50B4901604FF4E1314160002153
:1037900081600C22C160C0E904128161C161FFF740
:1037A00029F8002805D0BDE81040912103A000F0C1
:1037B00086BC10BD00140140D40600202E2E2F53CD
:1037C00072632F75736172742E630000FEE7704799
:1037D0000907090E002806DA00F00F0000F1E020CA
:1037E00080F8141D704700F1E02080F80014704745
:1037F0009FED111AF7EE000A50EE010ABCEEE00A46
:1038000051B104290DD0082910D00C2903D100682A
:1038100010EE101A01647047006810EE101A416330
:103820007047006810EE101A81637047006810EE50
:10383000101AC1637047000000401C464FF47A74B0
:1038400001212246084603F0C3FA012004F0BFFA22
:10385000F6E710B5FEF792F8BDE8104004F0D6BACE
:1038600030B5244893B00025016841F080510160D3
:10387000006800F0805011901F48016841F48041B9
:1038800001600068022400F4804011900120009043
:10389000000401908001CDE9064008AA0420A82177
:1038A00082E813000B906846FEF718FA00B1FEE7B5
:1038B0000CA90F2081E831004FF4A0500F904FF475
:1038C0008050109005210CA8FEF71AF900B1FEE710
:1038D000FEF7AEF94FF47A71B0FBF1F0FEF798FB0A
:1038E0000420FEF789FB00220F21501EFEF7D6F8B8
:1038F00013B030BD403802400070004010480168ED
:1039000041F4700101600F48016841F0010101605C
:103910000C4A00210832116002680B4B1A40026009
:10392000031D0A4A1A60026822F4802202600548D8
:103930000C30016002495806803908607047000069
:1039400088ED00E000380240FFFFF6FE1030002452
:103950000148FEF7DFBC00009C0500200148FEF78F
:10396000D9BC0000240500200148FEF7D3BC0000AC
:1039700060050020F0B50268234B244D244E254FEE
:10398000254C4FF0804C984209D0604507D0A842A2
:1039900005D0B04203D0B84201D0A04204D122F0F9
:1039A000700E4A6842EA0E0298421BD0604519D058
:1039B000A84217D0B04215D0B84213D0A04211D0BF
:1039C000164DA8420ED0164DA8420BD0154DA84258
:1039D00008D0154DA84205D0144DA84202D0144D70
:1039E000A84203D122F44075CA682A4302608A685B
:1039F000C2620A688262984201D0A04201D109697C
:103A0000016301214161F0BD00000140000400405C
:103A100000080040000C004000040140004001404C
:103A2000004401400048014000180040001C0040D4
:103A30000020004010B50123046A8B409C430462BF
:103A4000036A8A401343036210BD000030B5026A66
:103A500022F001020262026A436884690D6824F060
:103A60007304254322F002048A6822430B4CA042CF
:103A700002D00B4CA0420BD122F00804CA6823F4F8
:103A8000407322434C6922F004021C438B69234398
:103A90004360856149684163026230BD00000140B6
:103AA0000004014030B5026A22F010020262026A8C
:103AB000436884690D6824F4E64444EA05248D686B
:103AC00022F0200242EA05120D4DA84202D00D4D0F
:103AD000A8420ED1CD6822F0800242EA05124D695B
:103AE00023F4406343EA85038D6922F0400243EAF0
:103AF00085034360846149688163026230BD0000D0
:103B0000000001400004014030B5026A22F48072D6
:103B10000262036A4268C46923F4007324F07305E7
:103B20000C682C438D6843EA05230D4DA84202D052
:103B30000C4DA8420ED1CD6823F4006343EA05235F
:103B40004D6922F4405242EA05128D6923F48063E4
:103B500042EA05124260C4614968C163036230BD34
:103B6000000001400004014030B5026A22F4805296
:103B70000262046A4268C3690D6823F4E64343EABB
:103B800005238D6824F4005444EA0534084DA84206
:103B900002D0084DA84204D14D6922F4804242EA85
:103BA00085124260C36149680164046230BD00004F
:103BB000000001400004014010B5806B0021C18568
:103BC000C184FEF78DFD10BD70B5846B206840691F
:103BD00094F83910C0F3C0100025212904D118B180
:103BE000E584204600F062F82068406994F83A10B5
:103BF000C0F38010222904D118B1E585204600F0D9
:103C000047F8E06B40F01000E0632046FEF768FDE7
:103C100070BD10B50146806B09680968C90513D4E9
:103C20000021C1850168CA6822F48072CA600168F7
:103C30004A6922F001024A6101684A6922F04002A1
:103C40004A61202180F83A10FFF712F810BD10B534
:103C5000806BFFF70EF810BD10B50146806B096848
:103C60000968C9050CD40021C18401684A6922F0A1
:103C700080024A610068C16841F04001C16010BD26
:103C8000FFF738F810BD10B5806BFFF734F810BDA2
:103C90000168CA6822F49072CA6001684A6922F019
:103CA00001024A61202180F83A1070470168CA6811
:103CB00022F0C002CA60202180F83910704710B588
:103CC00090F83A10222901D0022010BD8168B1F588
:103CD000805F11D00169002901681FD0496801F097
:103CE0007F03816A4A1C82620B70C18D491E0904E0
:103CF000090CC18518D026E00269816A002A026891
:103D0000526805D0D2B20A80816A491C8162ECE710
:103D1000C2F308020A80816A891CF7E74A68816A4F
:103D20004B1C83620A70E0E70168CA6822F4907253
:103D3000CA6001684A6922F001024A61202180F8C4
:103D40003A10FEF795FF002010BD00002DE9F0416C
:103D500004460068016921F44052E16811430161A1
:103D60002168C86849F20C6290432369A268E5693A
:103D70001A4363692B431A430243CA6021684869A6
:103D800020F44072A06910434861E1696425B1F5EF
:103D9000004F9748974A21684FF032083FD0914230
:103DA00001D081427CD1FDF759FF00EBC00101EB4E
:103DB000001061688900B0FBF1F6FDF74FFF00EBE2
:103DC000C00101EB001061688900B0FBF1F0B0FBAD
:103DD000F5F06FF01801484306EB800108EB011085
:103DE000B0FBF5F000F0F006FDF738FF00EBC00186
:103DF00001EB001061688900B0FBF1F0B0FBF5F059
:103E000006EB0016FDF72AFF00EBC00101EB0010E6
:103E100061688900B0FBF1F7FDF720FFD2E0914225
:103E200001D081423DD1FDF719FF00EBC00101EB4C
:103E3000001061684900B0FBF1F0B0FBF5F006013D
:103E4000FDF70CFF00EBC00101EB001061684900B9
:103E5000B0FBF1F7FDF702FF00EBC00101EB001032
:103E600061684900B0FBF1F0B0FBF5F06FF01801AC
:103E7000484307EB800108EBC100B0FBF5F000F010
:103E8000F80006EB4006FDF7E9FE00EBC00101EB90
:103E9000001061684900B0FBF1F7FDF7DFFE3CE080
:103EA00055E0FDF7CBFE00EBC00101EB00106168AF
:103EB0004900B0FBF1F0B0FBF5F00601FDF7BEFEE6
:103EC00000EBC00101EB001061684900B0FBF1F7A5
:103ED000FDF7B4FE00EBC00101EB00106168490082
:103EE000B0FBF1F0B0FBF5F06FF01801484307EBC1
:103EF000800108EBC100B0FBF5F000F0F80006EB24
:103F00004006FDF79BFE00EBC00101EB001061686D
:103F10004900B0FBF1F7FDF791FE00EBC00101EBAA
:103F2000001061684900B0FBF1F0B0FBF5F06FF0F4
:103F30001801484307EB800108EBC100B0FBF5F026
:103F400000F00700216830448860BDE8F081FDF78B
:103F500075FE00EBC00101EB001061688900B0FB49
:103F6000F1F6FDF76BFE00EBC00101EB001061689C
:103F70008900B0FBF1F0B0FBF5F06FF01801484399
:103F800006EB800108EB0110B0FBF5F000F0F00645
:103F9000FDF754FE00EBC00101EB001061688900E1
:103FA000B0FBF1F0B0FBF5F006EB0016FDF746FEB6
:103FB00000EBC00101EB001061688900B0FBF1F774
:103FC000FDF73CFE00EBC00101EB001061688900C9
:103FD000B0FBF1F0B0FBF5F06FF01801484307EBD0
:103FE000800108EB0110B0FBF5F000F00F00A9E72D
:103FF000001401400010014090F83910212901D02F
:10400000022070478168B1F5805F016A0BD04A1CBD
:104010000262026809785160C18C491E0904090CCA
:10402000C1840ED017E009880268C1F3080151600D
:1040300001690029016A02D0491C0162ECE7891C70
:10404000FBE70168CA6822F08002CA600068C168A4
:1040500041F04001C16000207047000010B50448E5
:1040600004F070FBBDE810400148FEF73BBB0000C8
:104070001406002010B5044804F064FBBDE81040AD
:104080000148FEF72FBB00005406002010B504487D
:1040900004F058FBBDE810400148FEF723BB0000C8
:1040A0009406002010B5044804F04CFBBDE8104015
:1040B0000148FEF717BB0000D4060020FEE7FEE72C
:1040C0000FB4054B10B503A9044A029801F0D4F9C6
:1040D00010BC5DF814FB0000AD670008540100201F
:1040E0000FB4084B10B504A902AA039801F0C4F953
:1040F000044602A9002001F056FD204610BC5DF8E0
:1041000014FB0000A75B000803B40198410000986D
:1041100050EAC12018BF04204A0D18BF40F001002A
:1041200040F2FF72B2EB515F08BF40F0020001287D
:1041300008BF052002B0704770B5C1482DED020BD5
:104140002DED0E8B82B0119D25F000449FEDBEDB5E
:104150009FEDBFEB84423EDBA4F140511098A1F1EA
:104160007F6108430FD0BC48844202DC28D11098FC
:1041700030B39DED100B02B0BDEC0E8B02B0BDE86C
:10418000704001F06DB89DED100B53EC1D2B51EC00
:10419000100BFCF7ADF99DED100B41EC180B53EC37
:1041A0001E2B51EC100BFCF7A3F953EC182BFCF76A
:1041B000F8F841EC100B02B0BDEC0E8B02B070BDF4
:1041C000012001F091F802B0BDEC0E8B02B0BDE809
:1041D000704001F059B8A1489FEDA18B844256DA96
:1041E0009DED100BB4F1795F0ADA51EC100BFFF77B
:1041F0008BFF042808BF01F057F89DED100BDAE79C
:1042000053EC102B51EC100BFCF772F941EC190B2D
:1042100095480621B0EE490AF0EE690A784400F0AC
:10422000FBFD53EC192B51EC100BFCF761F941EC41
:104230001A0B8E48B0EE490AF0EE690A0421784460
:1042400000F0EAFD53EC192B51EC100BFCF750F980
:1042500053EC182BFCF7A5F841EC100B51EC1A0BA2
:1042600053EC102BFCF7B6F9CDE900019DED000BE6
:1042700053EC102B9DED100B51EC100BFCF738F9A3
:104280009DED101B53EC112BFCF78BF8D2E09DED4C
:10429000100B51EC100B02F07DFA53EC182BFCF7CD
:1042A00024F99FED730BCDE9000153EC102B9DED2C
:1042B000000B51EC100BFCF71BF941EC190B6E488D
:1042C0000621B0EE490AF0EE690A784400F0A4FD38
:1042D00053EC192B51EC100BFCF70AF941EC1B0BBA
:1042E0006648B0EE490AF0EE690A0421784400F00D
:1042F00093FD53EC192B51EC100BFCF7F9F853EC30
:10430000182BFCF74EF841EC1C0B51EC190B04F088
:1043100035F841EC180B5A489FED5BABA04222DC0C
:1043200053EC1C2B51EC1B0BFCF754F9CDE90001AD
:104330009DED000B51EC180B53EC102BFCF7D8F84B
:1043400053EC182BFCF72DF853EC1A2BFCF7D0F894
:1043500053EC1D2BFCF7C6F853EC1E2BFCF7C5F8ED
:1043600041EC100B5FE08DED008B002000909DED87
:10437000000B51EC180B53EC102BFCF712F89DEDD1
:10438000000B41EC1E0B53EC102B51EC100BFCF707
:10439000AFF853EC192BFCF7A8F853EC1E2BFCF7E5
:1043A00019F941EC190B53EC1C2B51EC1B0BFCF7CE
:1043B00011F941EC1B0B53EC1A2B51EC190BFCF7C8
:1043C00097F853EC1D2BFCF790F841EC190B53ECCC
:1043D0001A2B51EC180BFCF78BF853EC1B2BFCF74A
:1043E00087F853EC192BFCF77DF89DED000B41ECA1
:1043F000180B53EC1A2B51EC100BFCF779F89FEDCE
:10440000249B53EC192BFCF770F841EC100B51EC8A
:10441000180B53EC102BFCF765F853EC192BFCF739
:1044200064F841EC100B002D3FF7C5AE51EC100BBA
:1044300081F0004141EC100BBDE6000000000000DF
:104440000000F03F00000000075C143326A6913CFA
:10445000182D4454FB21F93F0000F07F0000E03F9D
:10446000000000000000F03F28590000365900000D
:10447000000000000000E03F7A580000885800006B
:104480003333EF3F00000000000000000000004058
:10449000182D4454FB21E93F70B59B482DED020BCC
:1044A0002DED068B079D25F00044A04218DC9748AF
:1044B000844202DC0AD1069840B19DED060BBDECAA
:1044C000068B02B0BDE8704000F0CABE002DCCBF24
:1044D0009FED8F0B9FED900BBDEC068B02B070BD76
:1044E0008F48A04215DD8F48A042D8BF4FF0FF345F
:1044F00058DD9DED060B51EC100BFFF705FE04286F
:1045000008BF00F0D1FE9DED060BBDEC068B02B09E
:1045100070BD9DED060B51EC100B02F03BF9CDE99F
:10452000060181489FED828BA0423CDD8248A0427B
:104530001FDD00249FED82AB9DED060B53EC1A2B83
:1045400051EC100BFBF72DFF9DED060B41EC190B09
:1045500053EC1A2B51EC100BFBF7CAFF53EC182B42
:10456000FBF7C0FF53EC192BFCF734F8CDE906013B
:1045700049E09DED060B012453EC182B51EC100B78
:10458000FBF70FFF9DED060B41EC190B53EC182BBD
:1045900051EC100BFBF7A6FF53EC192BFCF71AF8A4
:1045A000CDE906012FE06848A0421FDD02249FEDFF
:1045B000689B9DED060B53EC192B51EC100BFBF790
:1045C00097FF53EC182BFBF7ECFE9DED060B41EC2F
:1045D000180B53EC192B51EC100BFBF783FF53EC2A
:1045E000182BFBF7F7FFCDE906010CE09DED060B5C
:1045F000032453EC102B9FED580B51EC100BFBF7E1
:10460000E9FFCDE906019DED060B53EC102B51ECB3
:10461000100BFBF76DFF41EC180B53EC182BFBF75D
:1046200067FF41EC190B4E480621B0EE490AF0EE47
:10463000690A784400F0F0FB53EC182B51EC100B96
:10464000FBF756FF41EC180B4648B0EE490AF0EE76
:10465000690A0521784400F0DFFB53EC192B51EC7B
:10466000100BFBF745FF41EC100B51EC180B53EC12
:10467000102B002C0EDAFBF794FE9DED061B53EC7D
:10468000112BFBF735FF9DED061B53EC112BFBF7B0
:104690002CFF35E0FBF785FE9DED061B53EC112B3F
:1046A000FBF726FF41EC100B2F48784400EBC400C9
:1046B00090ED001B51EC100B53EC112BFBF712FF8C
:1046C0009DED061B53EC112BFBF70CFF41EC100B7F
:1046D0002648784400EBC40090ED001B51EC100B11
:1046E00053EC112BFBF701FF41EC100B002DA2BF87
:1046F000BDEC068B02B070BD51EC100B81F0004197
:1047000041EC100B01E70000000010440000F07FB6
:10471000182D4454FB21F93F182D4454FB21F9BFB7
:104720000000DC3F0000203E0000F33F00000000DE
:10473000000000000000F03F0000E63F0000000025
:104740000000000000000040008003400000000066
:10475000000000000000F83F000000000000F0BF73
:10476000CA550000805500000A550000C2540000E0
:1047700070B56B4E2DED040B2DED028B82B0DDF884
:104780001CC0DDE905235C422CF000411C4341EADA
:10479000D474049D22F00040B44205D86C422C43EE
:1047A00040EAD474B4420BD99DED061B9DED040B79
:1047B00002B0BDEC028B04B0BDE8704000F05ABD01
:1047C000ACF14054A4F17F641C430BD0022404EAF2
:1047D000AC7444EAD27405439FED538B9FED542B88
:1047E00007D015E09DED040B51EC100B01F028FAF9
:1047F00042E0002C11BF012C9DED040B02B0BDEC7A
:10480000028B04BF04B070BD022C38D0032C3BD007
:104810000B439FED491B9FED4A0B0AD0B14218D1C3
:10482000B04209D121F0804120F0804007910590ED
:104830000FE0002A15DA10E0434B7B44002C08BF40
:1048400093ED000B0DD0012C10D0022C17D0032CAF
:104850001AD0B0421DD1002A03DAB0EE410AF0EEC0
:10486000610A02B0BDEC028B04B070BD93ED000B89
:1048700051EC100B81F0004141EC100BF1E7B0EE70
:10488000480AF0EE680AECE7B0EE420AF0EE620A7F
:10489000E7E7401A00153C28C8BF8DED000B19DC76
:1048A000BCF1000FBEBF10F13C0F9FED290B8DED49
:1048B000000B0FDB9DED060B53EC102B9DED040B55
:1048C00051EC100BFBF786FE01F064FF01F0B8F924
:1048D000CDE90001002C08BF9DED000BC1D0012CDB
:1048E00010D0022C9FED1C0B53EC102B9DED000BF8
:1048F00051EC100B0DD0FBF7F5FD53EC182BFBF72B
:10490000F1FDB9E7019880F0004001909DED000BAA
:10491000A7E7FBF7E7FD53EC182BFBF7E6FDABE74A
:104920000000F07F00000000182D4454FB210940D6
:10493000182D4454FB2109C0182D4454FB21F9BF04
:10494000182D4454FB21F93FF253000000000000F1
:104950000000000000000000075C143326A6A13C04
:1049600010B51D499FED1A1B2DED020B84B0059863
:1049700020F000408842DCBF01209DED040B21DDCA
:104980001649884209D1049840B94FF0010000F05F
:10499000ABFC00F079FC06B010BD05DB9DED040B0F
:1049A00000F05EFC06B010BD68469DED040B00F003
:1049B00017F800F001000121A1EB40009DED021B62
:1049C0009DED000B00F0A4FA06B010BD0000000041
:1049D0000000000000000000FB21E93F0000F07F24
:1049E0002DE9F14F04462DED020B2DED088B8AB019
:1049F0009FEDE70B80ED020B139EE74826F0004584
:104A000085420ADC9DED120B002084ED000B0AB0FC
:104A1000BDEC088B03B0BDE8F08FE0489FEDE0AB44
:104A20009FEDE1BBA84247DDE14F9FEDE39B9FED8A
:104A3000E48B9DED120B53EC1A2B51EC100B002E56
:104A40001CDDFBF74FFD41EC100BBD4208D053ECD1
:104A50001B2B51EC100BFBF745FDC4E900010BE0EB
:104A600053EC192B51EC100BFBF73CFD53EC182BBE
:104A7000FBF738FDC4E900010120C8E7FBF791FC12
:104A800041EC100BBD4208D053EC1B2B51EC100B2A
:104A9000FBF787FCC4E900010BE053EC192B51EC48
:104AA000100BFBF77EFC53EC182BFBF77AFCC4E9E8
:104AB00000014FF0FF30AAE7C348A84279DB9DED23
:104AC000120B51EC100B01F065FE41EC180B9FED41
:104AD000C00B53EC102BFBF70BFD9FEDBF1B53ECF2
:104AE000112BFBF75EFCFBF7A0FF0746FBF7E1FD90
:104AF00041EC190B53EC1A2BFBF7FAFC53EC182B77
:104B0000FBF7F3FC41EC180B53EC1B2B51EC190B8E
:104B1000FBF7EEFCDFF8C8A241EC100B4FEA15588A
:104B20000125FA4453EC102B51EC180BFBF7DAFC7F
:104B3000032DC4E900013DD0C1F30A5005EB451136
:104B4000A8EB00001139814234DA0AEB051BB0EE04
:104B500048AA9BED000BF0EE68AA53EC102B51EC29
:104B6000190BFBF7C5FC41EC1B0B51EC1A0B53EC7A
:104B70001B2BFBF7B7FC41EC180B51EC1A0B53EC59
:104B8000182BFBF7AFFC53EC1B2BFBF7ABFC9BED9F
:104B9000020B41EC1A0B53EC102B51EC190BFBF7E9
:104BA000A7FC53EC1A2BFBF79DFC41EC100B6D1C82
:104BB000B8E70EE0002EA8BF3846BFF628AF94ED48
:104BC000000B51EC100B81F00041C4E90001784268
:104BD0001DE7C6F3130040F4801EC6F30A50A0F28E
:104BE000F530471100F01F05C5F12000DDF848B091
:104BF00008900020069007900520EC467949002D8A
:104C000007EB0002794408BF51F8221009D051F88F
:104C1000223001EB8201AB404A68089922FA01F187
:104C20001943A1FB0E26A1FB0B131A449A4234BF71
:104C30000123002303EB06080CEB8003D3E901A654
:104C40000E448E4234BF0121002192448A4411B1A6
:104C5000924502D903E0924501D2012100E00021F2
:104C6000C3E901A641444CF82010011EA0F1010047
:104C7000C4DC029800F10050850F0298DDE903675B
:104C80008000DDF81480FBF714FD41EC1A0B304670
:104C9000FBF720FD9FED541B53EC112BFBF728FC79
:104CA00041EC1B0B3846FBF715FD9FED511B53ECF8
:104CB000112BFBF71DFC41EC180B4046FBF70AFDDE
:104CC0009FED4D1B53EC112BFBF712FC41EC190B24
:104CD00051EC180B53EC192BFBF763FB53EC1B2B1C
:104CE000FBF75FFB53EC1A2BFBF75BFBCDE90801ED
:104CF000002008909DED080B53EC1A2B51EC100B83
:104D0000FBF7F0FB53EC1B2BFBF7ECFB53EC182BE6
:104D1000FBF7E8FB53EC192BFBF7E7FB9FED381B88
:104D200053EC112BFBF7E4FB9FED370B41EC180B19
:104D300053EC102B9DED080B51EC100BFBF7D8FB3F
:104D400053EC182BFBF72DFB9FED310B41EC180BAF
:104D500053EC102B9DED080B51EC100BFBF7C8FB2F
:104D600053EC182BFBF71DFB41EC100B139810F0C4
:104D7000004F06D06D4251EC100B81F0004141EC28
:104D8000100B284684ED000B41E6000000000000F7
:104D90000000000000000000FB21E93F7CD9024038
:104DA00000004054FB21F93F3163621A61B4D03DE9
:104DB000FB21F93F000000000000601A61B4D03D03
:104DC0007370032E8A19A33BFB21394100000000B8
:104DD00083C8C96D305FE43F000000000000E03F81
:104DE0001251000060500000000000000000103E62
:104DF000000000000000103C000000000000103A1D
:104E0000182D4454FB21F93D3326A611460B113CC5
:104E100000000054FB21F93D70B504462DED028BD6
:104E20004D1E00EBC500B0EE408AF0EE608A90EDBA
:104E3000000B35F0060017D053EC182B51EC100B7B
:104E4000FBF756FB41EC100B6D1E04EBC50090ED1B
:104E5000001B51EC100B53EC112BFBF7A2FA41ECA9
:104E6000100B35F00600E7D1022D36D0042D1CD0F2
:104E7000062D1CBFBDEC028B70BD53EC182B51EC02
:104E8000100BFBF735FB94ED0A1B53EC112BFBF7D2
:104E900088FA53EC182BFBF72BFB94ED081B53EC13
:104EA000112BFBF77EFA41EC100B53EC182B51EC55
:104EB000100BFBF71DFB94ED061B53EC112BFBF7BE
:104EC00070FA53EC182BFBF713FB94ED040B53EC27
:104ED000102BFBF766FA41EC100B53EC182B51EC3E
:104EE000100BFBF705FB94ED021B53EC112BFBF7AA
:104EF00058FA53EC182BFBF7FBFA94ED001B53EC1C
:104F0000112BFBF74EFABDEC028B41EC100B70BD80
:104F1000F1B506462DED040BBD482DED0C8B8AB086
:104F2000B0EE418AF0EE618A179D25F000449FEDB6
:104F3000BABB9FEDBBCB844208DA9DED160B51EC5A
:104F4000100BFBF772FD002800F0E980B64FA74276
:104F500031DC002D0DDA9DED160B51EC100B81F0BC
:104F60000041CDE9160151EC180B81F0004141ECF4
:104F7000180B9FEDAF0B53EC102B9DED160B51EC66
:104F8000100BFBF7B2FA53EC182B9FEDAB0BCDE9EE
:104F9000040151EC100BFBF7A5FA41EC100B53EC9C
:104FA000102B9DED040B51EC100BFBF7FAF99FED64
:104FB000A48BCDE916019DED160B53EC102B51EC93
:104FC000100BFBF795FACDE904019DED040B53ECB2
:104FD000102B51EC100BFBF78BFA41EC190B9A4894
:104FE0000621B0EE490AF0EE690A7844FFF714FF93
:104FF0009648B0EE40DAF0EE60DAB0EE490AF0EE34
:10500000690A06217844FFF707FF9DED041B51EC68
:10501000100B53EC112BFBF76BFA9DED040B41ECDD
:105020001A0B53EC102B9DED160B51EC100BFBF7EC
:105030005FFA41EC190B53EC1A2B51EC1D0BFBF7EB
:10504000B0F953EC192BFBF753FA53EC182BFBF781
:10505000A8F99DED041B53EC112BFBF749FA53EC17
:10506000182BFBF79EF941EC180B9FED790B51ECD7
:10507000190B53EC102BFBF73BFA53EC182BFBF7F7
:1050800090F941EC190B9DED160B53EC192B51ECDB
:10509000100BFBF786F941EC180BA74269DC304690
:1050A000FBF707FB41EC1A0B51EC180B53EC1A2BD6
:1050B000FBF777F941EC1B0B53EC182B51EC180B59
:1050C000FBF716FA53EC1B2BFBF784FA53EC192B66
:1050D000FBF708FA9DED161B53EC112BFBF705FAB5
:1050E0009FED5D1B53EC112BFBF702FA53EC1A2BCF
:1050F000FBF7FBF941EC180B022000EAA570C0F1A8
:105100000100FBF7D6FA53EC182BFBF7F1F900BFBF
:1051100041EC100B0AB0BDEC0C8B05B0F0BD711C5E
:105120001698214308430CD09DED160B012E1CBF91
:1051300053EC102B51EC1C0B10D000BFFBF74AFABC
:10514000E6E79DED160B51EC100B01F023FB41EC53
:10515000100B51EC1B0B53EC102BEFE751EC100B29
:10516000FEF7D2FF042808BF00F09EF89DED160B55
:10517000D0E7012E04BFB0EE480AF0EE680AC9D0AD
:105180008DED048B002404949DED040B53EC102B47
:105190009DED160B51EC100BFBF7A7F953EC192BF7
:1051A000FBF7A3F941EC190B53EC182B51EC1C0B3A
:1051B000FBF710FA41EC180B8DED008B00949DED80
:1051C000040B53EC102B9DED000B51EC100BFBF777
:1051D0008FF953EC1B2BFBF7E4F89DED000B41EC32
:1051E0001A0B53EC192B51EC100BFBF781F953EC14
:1051F0001A2BFBF7D6F853EC182BFBF779F99DED3A
:10520000001B53EC112BFBF7CCF881E700000000EA
:105210000000303E00000000000000000000F03FF1
:10522000000000000000F0BF2894E53F00000000EF
:10523000182D4454FB21E93F075C143326A6813C1A
:105240000000000000000000124D0000284D00008A
:10525000635555555555D53F0000000000000040EE
:1052600010B553EC102B51EC100BFBF79AF841ECF6
:10527000100B10BD10B553EC112B51EC100BFBF7BC
:1052800090F841EC100B10BD9FED050B10B553ECE1
:10529000102B51EC100BFBF79DF941EC100B10BDDE
:1052A00000000000000000009FED050B10B553EC5E
:1052B000102B51EC100BFBF71BF941EC100B10BD40
:1052C000000000000000001002E008C8121F08C122
:1052D000002AFAD170477047002001E001C1121F77
:1052E000002AFBD1704700000149086070470000A8
:1052F000580100202DE9FF5F82B00021DDE9043074
:10530000020DDDF840B0034318D044F61050A2F26D
:10531000FF3242431514119801281FD0A5EB0B0052
:10532000401C5FEA000A4FF000064E4FDFF838914C
:10533000B046504615D5CAF1000413E01198012477
:105340004AA3012801D16FEA0B010298119AC0E922
:105350000031C0E9024206B0BDE8F09FCBF1000089
:10536000DFE704460021404A491842EB0450CDE9EA
:10537000001012E0E00707D032463B46404649465F
:10538000FBF7B6F88046894632463B46104619463A
:10539000FBF7AEF806460F466410002CEAD1DDE9B3
:1053A0000401DDE90023BAF1000F06DAFBF7A0F8EB
:1053B00042464B46FBF79CF805E0FBF70BF94246EB
:1053C0004B46FBF707F904460E460022284BFBF735
:1053D000B1FA03D84FF0FF30014607E00022254B19
:1053E00020463146FAF7DDFFFBF78BFA102409E07F
:1053F000002C0ADB0A220023FAF740FF039B30321D
:105400001A55641E50EA0102F2D1641C039AC4F1D9
:1054100011031444119A012A03D0012208430DD12B
:105420000AE0084304D000204FF0110B119072E7FE
:10543000A3EB0B056D1E0DE05B4504DD4FF0000294
:1054400005F1010504E003DA4FF00002A5F10105C2
:10545000002AECD002981199C0E90231C0E9004558
:1054600079E70000000014400000F03F3000000029
:105470000000F0430000E03F2DE9FF4F95B09B4650
:105480008946064600250FE2252877D100242746C5
:10549000F84A0121059400E0044316F8013F203B3F
:1054A00001FA03F01042F7D130782A2811D06FF0BA
:1054B0002F033078A0F13002092A16D8059A44F05B
:1054C000020402EB820203EB42021044761C0590B8
:1054D000EFE759F8042B0592002A03DA504244F40E
:1054E0000054059044F00204761C30782E2816D122
:1054F00016F8010F44F004042A280DD06FF02F0293
:105500003078A0F13003092B09D807EB870302EBB1
:105510004303C718761CF3E759F8047B761C3078F0
:105520006C280FD006DC4C2817D068280DD06A28CC
:1055300014D104E0742810D07A280FD10DE044F47F
:1055400000140AE044F4801401E044F4401472783A
:10555000824202D104F58014761C761C30786628CD
:105560000BD013DC582877D009DC002875D04528EB
:10557000F6D04628F4D047281AD19DE118E06328D8
:1055800035D0642879D0652812D195E1702873D080
:1055900008DC6728F1D069286FD06E280DD06F28FD
:1055A00006D1B5E073282CD0752875D0782874D032
:1055B0005A46179990476D1C75E1C4F302500228B2
:1055C00009D003280DD0D9F8001004280DD00D60A3
:1055D00009F1040967E1D9F80010EA17C1E900529E
:1055E000F6E7D9F800100D80F2E70D70F0E719F832
:1055F000041B8DF8001000208DF80100EA46012000
:1056000003E059F804AB4FF0FF3061074FF00001A1
:1056100002D40DE008F101018846B9420FDA804555
:10562000F8DB1AF808100029F4D108E008F10101AC
:1056300088468142FADB1AF808100029F6D105984D
:105640005B46A0EB080721463846179A00F094FA0B
:10565000284400EB080507E04DE029E10DE01AF8C9
:10566000010B5A4617999047B8F10108F7D25B46EB
:1056700021463846179A13E142E00A220092C4F309
:1056800002524FF0000A022A08D059F804CB032A2C
:105690004FEAEC710AD00DE029E02AE009F1070198
:1056A00021F00702F2E802C1914609E00FFA8CFCF2
:1056B0004FEAEC71042A03D14FFA8CFC4FEAEC71EB
:1056C000002907DA0A460021DCF1000C61EB020137
:1056D0002D2202E0220504D52B228DF80420012280
:1056E00003E0E20701D02022F7E7904659E00A21C3
:1056F00002E010220DE010214FF0000A00910BE0B3
:1057000010224FF0000A44F004040827009203E03E
:1057100008224FF0000A0092C4F30252022A05D078
:1057200059F804CB0021032A08D009E009F1070148
:1057300021F00702F2E802C1914605E01FFA8CFC55
:10574000042A01D10CF0FF0C4FF00008220728D5E5
:10575000702806D0009B83F0100353EA0A0305D09B
:105760000EE040228DF80420012208E05CEA0102EC
:1057700006D030228DF804208DF8050002229046D4
:10578000009B83F0080353EA0A030AD15CEA010292
:1057900001D1620705D530228DF804204FF00108B1
:1057A0007F1E582804D034A003900EA802900DE06C
:1057B00036A0F9E753466046009AFAF75FFD844643
:1057C0000398825C0298401E029002705CEA01001D
:1057D000F0D1029806A9081A00F1200A600702D544
:1057E00024F4803400E00127574502DDA7EB0A00CE
:1057F00000E0002000EB0A01009005984144401AA7
:105800000590E00306D45B462146179A059800F000
:10581000B3F90544002706E001A85A46C05D179970
:1058200090476D1C7F1C4745F6DBE0030CD55B46BB
:105830002146179A059800F09FF9054404E03020AE
:105840005A46179990476D1C0099481E00900029F0
:10585000F5DC08E0029802995A460078491C02914A
:10586000179990476D1CBAF10001AAF1010AF1DC09
:1058700065E1000009280100303132333435363714
:10588000383961626364656600000000303132338C
:10589000343536373839414243444546000000002C
:1058A00000F058F90544761C307800287FF4ECAD00
:1058B00019B02846BDE8F08F620700D4062709F129
:1058C000070222F0070CFCE80223E14603F000483F
:1058D0005FEA080C02D00FF2702C0DE05FEA045C66
:1058E00002D50FF2682C07E05FEAC47C02D00FF209
:1058F000602C01E0AFF2700C4FF0FF3823F0004352
:10590000CDF850C065280CD006DC452809D04628C3
:105910001DD047283DD13DE0662818D067287ED1AC
:1059200038E00021112F01DB112000E0781CCDE9C7
:10593000000106A90EA8FFF7DDFCDDE90F010E9AB4
:1059400003910021009207F1010A04914DE04FF00C
:1059500000400097CDE9011006A90EA8FFF7CAFC88
:10596000DDE90F0203920E9B11990022DDF80CA0D5
:105970000093049211B9791C00EB010AB7EB0A00FD
:1059800004D4C0F1FF3007F1010A0490AAEB07002C
:10599000019044E0012F00DA01270021112F01DDE1
:1059A000112000E03846CDE9000106A90EA8FFF756
:1059B000A1FCDDE90F010E9A0391002104910092F0
:1059C000BA4621070CD40399514500DA8A46BAF148
:1059D000010F05DD009AAAF10101515C302908D0C0
:1059E000B84202DA10F1040F06DA0121CDE9011004
:1059F00015E0AAF10101E9E7002805DC049901445A
:105A00000491AAEB000102E0411C514500DD8A46E9
:105A10000499401A401C01904FF00040029020076A
:105A200004D40198504501DBCDF8048000208DF8A6
:105A30004F0002980DF14F07B0F1004F25D02B20F9
:105A40000E9002984FF0020800280CDA40420290B3
:105A50002D200E9007E00A210298FAF777FE3031E8
:105A6000029007F8011DB8F10001A8F10108F2DC6D
:105A700002980028EFD1791E0E980870307800F057
:105A8000200040F0450007F8020D12A8C01B00F1ED
:105A900007081498007800B1012000EB0A01019872
:105AA00001EBE07105984144401A401E0590E00367
:105AB00006D45B462146179A059800F05DF8054428
:105AC0001498007818B15A46179990476D1CE00356
:105AD00024D55B462146179A059800F04DF80544F9
